{
  "_format": "hh-sol-artifact-1",
  "contractName": "BridgeWrapper",
  "sourceName": "contracts/BridgeWrapper.sol",
  "abi": [
    {
      "inputs": [
        {
          "internalType": "address",
          "name": "solace_",
          "type": "address"
        },
        {
          "internalType": "address",
          "name": "bsolace_",
          "type": "address"
        }
      ],
      "stateMutability": "nonpayable",
      "type": "constructor"
    },
    {
      "anonymous": false,
      "inputs": [
        {
          "indexed": true,
          "internalType": "address",
          "name": "sender",
          "type": "address"
        },
        {
          "indexed": true,
          "internalType": "address",
          "name": "receiver",
          "type": "address"
        },
        {
          "indexed": false,
          "internalType": "uint256",
          "name": "amount",
          "type": "uint256"
        }
      ],
      "name": "Unwrapped",
      "type": "event"
    },
    {
      "anonymous": false,
      "inputs": [
        {
          "indexed": true,
          "internalType": "address",
          "name": "sender",
          "type": "address"
        },
        {
          "indexed": true,
          "internalType": "address",
          "name": "receiver",
          "type": "address"
        },
        {
          "indexed": false,
          "internalType": "uint256",
          "name": "amount",
          "type": "uint256"
        }
      ],
      "name": "Wrapped",
      "type": "event"
    },
    {
      "inputs": [],
      "name": "bsolace",
      "outputs": [
        {
          "internalType": "address",
          "name": "",
          "type": "address"
        }
      ],
      "stateMutability": "view",
      "type": "function"
    },
    {
      "inputs": [
        {
          "internalType": "uint256",
          "name": "amount",
          "type": "uint256"
        },
        {
          "internalType": "address",
          "name": "receiver",
          "type": "address"
        }
      ],
      "name": "bsolaceToSolace",
      "outputs": [],
      "stateMutability": "nonpayable",
      "type": "function"
    },
    {
      "inputs": [],
      "name": "solace",
      "outputs": [
        {
          "internalType": "address",
          "name": "",
          "type": "address"
        }
      ],
      "stateMutability": "view",
      "type": "function"
    },
    {
      "inputs": [
        {
          "internalType": "uint256",
          "name": "amount",
          "type": "uint256"
        },
        {
          "internalType": "address",
          "name": "receiver",
          "type": "address"
        }
      ],
      "name": "solaceToBSolace",
      "outputs": [],
      "stateMutability": "nonpayable",
      "type": "function"
    },
    {
      "inputs": [
        {
          "internalType": "uint256",
          "name": "amount",
          "type": "uint256"
        },
        {
          "internalType": "address",
          "name": "receiver",
          "type": "address"
        },
        {
          "internalType": "uint256",
          "name": "deadline",
          "type": "uint256"
        },
        {
          "internalType": "uint8",
          "name": "v",
          "type": "uint8"
        },
        {
          "internalType": "bytes32",
          "name": "r",
          "type": "bytes32"
        },
        {
          "internalType": "bytes32",
          "name": "s",
          "type": "bytes32"
        }
      ],
      "name": "solaceToBSolaceSigned",
      "outputs": [],
      "stateMutability": "nonpayable",
      "type": "function"
    }
  ],
  "bytecode": "0x608060405234801561001057600080fd5b50604051610a50380380610a5083398101604081905261002f9161012d565b6001600160a01b03821661008a5760405162461bcd60e51b815260206004820152601360248201527f7a65726f206164647265737320736f6c6163650000000000000000000000000060448201526064015b60405180910390fd5b6001600160a01b0381166100e05760405162461bcd60e51b815260206004820152601460248201527f7a65726f20616464726573732062736f6c6163650000000000000000000000006044820152606401610081565b600080546001600160a01b039384166001600160a01b03199182161790915560018054929093169116179055610160565b80516001600160a01b038116811461012857600080fd5b919050565b6000806040838503121561014057600080fd5b61014983610111565b915061015760208401610111565b90509250929050565b6108e18061016f6000396000f3fe608060405234801561001057600080fd5b50600436106100675760003560e01c80631e488a14116100505780631e488a14146100945780633ef8d97e146100a7578063cb694218146100d657600080fd5b80630c821a671461006c5780631af88eca14610081575b600080fd5b61007f61007a3660046107a4565b6100e9565b005b61007f61008f3660046107a4565b61010f565b61007f6100a23660046107d0565b6101d1565b6000546100ba906001600160a01b031681565b6040516001600160a01b03909116815260200160405180910390f35b6001546100ba906001600160a01b031681565b600054610101906001600160a01b0316333085610284565b61010b8282610322565b5050565b600154610127906001600160a01b0316333085610284565b6000546040516340c10f1960e01b81526001600160a01b03838116600483015260248201859052909116906340c10f1990604401600060405180830381600087803b15801561017557600080fd5b505af1158015610189573d6000803e3d6000fd5b50506040518481526001600160a01b03841692503391507f742cbb4a6bddd5e23aa0c14356065c236bdbc921cddb7f1f763161eb2030f3ef9060200160405180910390a35050565b60005460405163d505accf60e01b8152336004820152306024820152604481018890526064810186905260ff8516608482015260a4810184905260c481018390526001600160a01b039091169063d505accf9060e401600060405180830381600087803b15801561024157600080fd5b505af1158015610255573d6000803e3d6000fd5b505060005461027292506001600160a01b03169050333089610284565b61027c8686610322565b505050505050565b6040516001600160a01b038085166024830152831660448201526064810182905261031c9085906323b872dd60e01b906084015b60408051601f198184030181529190526020810180517bffffffffffffffffffffffffffffffffffffffffffffffffffffffff167fffffffff00000000000000000000000000000000000000000000000000000000909316929092179091526104a2565b50505050565b6001546040516370a0823160e01b81523060048201526001600160a01b0390911690839082906370a082319060240160206040518083038186803b15801561036957600080fd5b505afa15801561037d573d6000803e3d6000fd5b505050506040513d601f19601f820116820180604052508101906103a1919061078b565b10156103f45760405162461bcd60e51b815260206004820152601d60248201527f696e73756666696369656e7420627269646765206c697175696469747900000060448201526064015b60405180910390fd5b6103ff81838561058c565b600054604051630852cd8d60e31b8152600481018590526001600160a01b03909116906342966c6890602401600060405180830381600087803b15801561044557600080fd5b505af1158015610459573d6000803e3d6000fd5b50506040518581526001600160a01b03851692503391507f29b3b451f9779df34ec8a67ec6c96fa910b17a579a66b7428d94f481be6900d99060200160405180910390a3505050565b60006104f7826040518060400160405280602081526020017f5361666545524332303a206c6f772d6c6576656c2063616c6c206661696c6564815250856001600160a01b03166105bc9092919063ffffffff16565b80519091501561058757808060200190518101906105159190610769565b6105875760405162461bcd60e51b815260206004820152602a60248201527f5361666545524332303a204552433230206f7065726174696f6e20646964206e60448201527f6f7420737563636565640000000000000000000000000000000000000000000060648201526084016103eb565b505050565b6040516001600160a01b03831660248201526044810182905261058790849063a9059cbb60e01b906064016102b8565b60606105cb84846000856105d5565b90505b9392505050565b60608247101561064d5760405162461bcd60e51b815260206004820152602660248201527f416464726573733a20696e73756666696369656e742062616c616e636520666f60448201527f722063616c6c000000000000000000000000000000000000000000000000000060648201526084016103eb565b843b61069b5760405162461bcd60e51b815260206004820152601d60248201527f416464726573733a2063616c6c20746f206e6f6e2d636f6e747261637400000060448201526064016103eb565b600080866001600160a01b031685876040516106b79190610830565b60006040518083038185875af1925050503d80600081146106f4576040519150601f19603f3d011682016040523d82523d6000602084013e6106f9565b606091505b5091509150610709828286610714565b979650505050505050565b606083156107235750816105ce565b8251156107335782518084602001fd5b8160405162461bcd60e51b81526004016103eb919061084c565b80356001600160a01b038116811461076457600080fd5b919050565b60006020828403121561077b57600080fd5b815180151581146105ce57600080fd5b60006020828403121561079d57600080fd5b5051919050565b600080604083850312156107b757600080fd5b823591506107c76020840161074d565b90509250929050565b60008060008060008060c087890312156107e957600080fd5b863595506107f96020880161074d565b945060408701359350606087013560ff8116811461081657600080fd5b9598949750929560808101359460a0909101359350915050565b6000825161084281846020870161087f565b9190910192915050565b602081526000825180602084015261086b81604085016020870161087f565b601f01601f19169190910160400192915050565b60005b8381101561089a578181015183820152602001610882565b8381111561031c575050600091015256fea26469706673582212200a56d4f7b481e5cc0f26bf8b6267953ab4b0230023d96ce64ff44a0ba19c251064736f6c63430008060033",
  "linkReferences": {},
  "deployedLinkReferences": {}
}