{
  "_format": "hh-sol-artifact-1",
  "contractName": "FarmRewardsV2",
  "sourceName": "contracts/staking/FarmRewardsV2.sol",
  "abi": [
    {
      "inputs": [
        {
          "internalType": "address",
          "name": "governance_",
          "type": "address"
        },
        {
          "internalType": "address",
          "name": "solace_",
          "type": "address"
        },
        {
          "internalType": "address",
          "name": "xsolacev1_",
          "type": "address"
        },
        {
          "internalType": "address",
          "name": "farmRewardsv1_",
          "type": "address"
        },
        {
          "internalType": "address",
          "name": "xsLocker_",
          "type": "address"
        },
        {
          "internalType": "address",
          "name": "receiver_",
          "type": "address"
        }
      ],
      "stateMutability": "nonpayable",
      "type": "constructor"
    },
    {
      "anonymous": false,
      "inputs": [],
      "name": "GovernanceLocked",
      "type": "event"
    },
    {
      "anonymous": false,
      "inputs": [
        {
          "indexed": false,
          "internalType": "address",
          "name": "pendingGovernance",
          "type": "address"
        }
      ],
      "name": "GovernancePending",
      "type": "event"
    },
    {
      "anonymous": false,
      "inputs": [
        {
          "indexed": false,
          "internalType": "address",
          "name": "oldGovernance",
          "type": "address"
        },
        {
          "indexed": false,
          "internalType": "address",
          "name": "newGovernance",
          "type": "address"
        }
      ],
      "name": "GovernanceTransferred",
      "type": "event"
    },
    {
      "anonymous": false,
      "inputs": [
        {
          "indexed": false,
          "internalType": "address",
          "name": "receiver",
          "type": "address"
        }
      ],
      "name": "ReceiverSet",
      "type": "event"
    },
    {
      "inputs": [],
      "name": "VESTING_END",
      "outputs": [
        {
          "internalType": "uint256",
          "name": "",
          "type": "uint256"
        }
      ],
      "stateMutability": "view",
      "type": "function"
    },
    {
      "inputs": [],
      "name": "acceptFarmRewardsV1Governance",
      "outputs": [],
      "stateMutability": "nonpayable",
      "type": "function"
    },
    {
      "inputs": [],
      "name": "acceptGovernance",
      "outputs": [],
      "stateMutability": "nonpayable",
      "type": "function"
    },
    {
      "inputs": [
        {
          "internalType": "address",
          "name": "tokenIn",
          "type": "address"
        },
        {
          "internalType": "uint256",
          "name": "amountOut",
          "type": "uint256"
        }
      ],
      "name": "calculateAmountIn",
      "outputs": [
        {
          "internalType": "uint256",
          "name": "amountIn",
          "type": "uint256"
        }
      ],
      "stateMutability": "view",
      "type": "function"
    },
    {
      "inputs": [
        {
          "internalType": "address",
          "name": "tokenIn",
          "type": "address"
        },
        {
          "internalType": "uint256",
          "name": "amountIn",
          "type": "uint256"
        }
      ],
      "name": "calculateAmountOut",
      "outputs": [
        {
          "internalType": "uint256",
          "name": "amountOut",
          "type": "uint256"
        }
      ],
      "stateMutability": "view",
      "type": "function"
    },
    {
      "inputs": [],
      "name": "farmRewardsv1",
      "outputs": [
        {
          "internalType": "address",
          "name": "",
          "type": "address"
        }
      ],
      "stateMutability": "view",
      "type": "function"
    },
    {
      "inputs": [],
      "name": "governance",
      "outputs": [
        {
          "internalType": "address",
          "name": "",
          "type": "address"
        }
      ],
      "stateMutability": "view",
      "type": "function"
    },
    {
      "inputs": [],
      "name": "governanceIsLocked",
      "outputs": [
        {
          "internalType": "bool",
          "name": "",
          "type": "bool"
        }
      ],
      "stateMutability": "view",
      "type": "function"
    },
    {
      "inputs": [],
      "name": "lockGovernance",
      "outputs": [],
      "stateMutability": "nonpayable",
      "type": "function"
    },
    {
      "inputs": [],
      "name": "pendingGovernance",
      "outputs": [
        {
          "internalType": "address",
          "name": "",
          "type": "address"
        }
      ],
      "stateMutability": "view",
      "type": "function"
    },
    {
      "inputs": [
        {
          "internalType": "address",
          "name": "farmer",
          "type": "address"
        }
      ],
      "name": "purchaseableSolace",
      "outputs": [
        {
          "internalType": "uint256",
          "name": "amount",
          "type": "uint256"
        }
      ],
      "stateMutability": "view",
      "type": "function"
    },
    {
      "inputs": [
        {
          "internalType": "address",
          "name": "farmer",
          "type": "address"
        }
      ],
      "name": "purchaseableXSolace",
      "outputs": [
        {
          "internalType": "uint256",
          "name": "amount",
          "type": "uint256"
        }
      ],
      "stateMutability": "view",
      "type": "function"
    },
    {
      "inputs": [],
      "name": "receiver",
      "outputs": [
        {
          "internalType": "address",
          "name": "",
          "type": "address"
        }
      ],
      "stateMutability": "view",
      "type": "function"
    },
    {
      "inputs": [
        {
          "internalType": "address",
          "name": "tokenIn",
          "type": "address"
        },
        {
          "internalType": "uint256",
          "name": "amountIn",
          "type": "uint256"
        }
      ],
      "name": "redeem",
      "outputs": [],
      "stateMutability": "nonpayable",
      "type": "function"
    },
    {
      "inputs": [
        {
          "internalType": "address",
          "name": "tokenIn",
          "type": "address"
        },
        {
          "internalType": "uint256",
          "name": "amountIn",
          "type": "uint256"
        },
        {
          "internalType": "address",
          "name": "depositor",
          "type": "address"
        },
        {
          "internalType": "uint256",
          "name": "deadline",
          "type": "uint256"
        },
        {
          "internalType": "uint8",
          "name": "v",
          "type": "uint8"
        },
        {
          "internalType": "bytes32",
          "name": "r",
          "type": "bytes32"
        },
        {
          "internalType": "bytes32",
          "name": "s",
          "type": "bytes32"
        }
      ],
      "name": "redeemSigned",
      "outputs": [],
      "stateMutability": "nonpayable",
      "type": "function"
    },
    {
      "inputs": [
        {
          "internalType": "address",
          "name": "token",
          "type": "address"
        },
        {
          "internalType": "uint256",
          "name": "amount",
          "type": "uint256"
        }
      ],
      "name": "rescueTokens",
      "outputs": [],
      "stateMutability": "nonpayable",
      "type": "function"
    },
    {
      "inputs": [
        {
          "internalType": "address",
          "name": "newGovernor",
          "type": "address"
        },
        {
          "internalType": "address",
          "name": "newReceiver",
          "type": "address"
        }
      ],
      "name": "setFarmRewardsV1Governance",
      "outputs": [],
      "stateMutability": "nonpayable",
      "type": "function"
    },
    {
      "inputs": [
        {
          "internalType": "address",
          "name": "pendingGovernance_",
          "type": "address"
        }
      ],
      "name": "setPendingGovernance",
      "outputs": [],
      "stateMutability": "nonpayable",
      "type": "function"
    },
    {
      "inputs": [
        {
          "internalType": "address payable",
          "name": "receiver_",
          "type": "address"
        }
      ],
      "name": "setReceiver",
      "outputs": [],
      "stateMutability": "nonpayable",
      "type": "function"
    },
    {
      "inputs": [],
      "name": "solace",
      "outputs": [
        {
          "internalType": "address",
          "name": "",
          "type": "address"
        }
      ],
      "stateMutability": "view",
      "type": "function"
    },
    {
      "inputs": [
        {
          "internalType": "address",
          "name": "",
          "type": "address"
        }
      ],
      "name": "userLock",
      "outputs": [
        {
          "internalType": "uint256",
          "name": "",
          "type": "uint256"
        }
      ],
      "stateMutability": "view",
      "type": "function"
    },
    {
      "inputs": [],
      "name": "xsLocker",
      "outputs": [
        {
          "internalType": "address",
          "name": "",
          "type": "address"
        }
      ],
      "stateMutability": "view",
      "type": "function"
    },
    {
      "inputs": [],
      "name": "xsolacev1",
      "outputs": [
        {
          "internalType": "address",
          "name": "",
          "type": "address"
        }
      ],
      "stateMutability": "view",
      "type": "function"
    }
  ],
  "bytecode": "0x60806040523480156200001157600080fd5b506040516200267b3803806200267b83398101604081905262000034916200036f565b6001600055856001600160a01b038116620000965760405162461bcd60e51b815260206004820152601760248201527f7a65726f206164647265737320676f7665726e616e636500000000000000000060448201526064015b60405180910390fd5b600180546001600160a01b0319166001600160a01b03928316179055600280546001600160a81b03191690558516620001125760405162461bcd60e51b815260206004820152601360248201527f7a65726f206164647265737320736f6c6163650000000000000000000000000060448201526064016200008d565b6001600160a01b0384166200016a5760405162461bcd60e51b815260206004820152601660248201527f7a65726f20616464726573732078736f6c61636576310000000000000000000060448201526064016200008d565b6001600160a01b038316620001c25760405162461bcd60e51b815260206004820152601c60248201527f7a65726f2061646472657373206661726d20726577617264732076310000000060448201526064016200008d565b6001600160a01b0382166200021a5760405162461bcd60e51b815260206004820152601560248201527f7a65726f20616464726573732078736c6f636b6572000000000000000000000060448201526064016200008d565b6001600160a01b038116620002725760405162461bcd60e51b815260206004820152601560248201527f7a65726f2061646472657373207265636569766572000000000000000000000060448201526064016200008d565b600380546001600160a01b038781166001600160a01b03199283168117909355600480548883169084161781556006805488841690851617905560058054878416908516811790915560078054938716939094169290921790925560405163095ea7b360e01b815291820152600019602482015263095ea7b390604401602060405180830381600087803b1580156200030a57600080fd5b505af11580156200031f573d6000803e3d6000fd5b505050506040513d601f19601f82011682018060405250810190620003459190620003f0565b505050505050506200041b565b80516001600160a01b03811681146200036a57600080fd5b919050565b60008060008060008060c087890312156200038957600080fd5b620003948762000352565b9550620003a46020880162000352565b9450620003b46040880162000352565b9350620003c46060880162000352565b9250620003d46080880162000352565b9150620003e460a0880162000352565b90509295509295509295565b6000602082840312156200040357600080fd5b815180151581146200041457600080fd5b9392505050565b612250806200042b6000396000f3fe608060405234801561001057600080fd5b506004361061018d5760003560e01c80635aa6e675116100e3578063d335c9631161008c578063ef531e1011610066578063ef531e1014610327578063f39c38a01461033a578063f7260d3e1461034b57600080fd5b8063d335c963146102f6578063d8597edf14610309578063e4e2b4481461031c57600080fd5b80638e9d0495116100bd5780638e9d0495146102d3578063988dd830146102e6578063abbf4b17146102ee57600080fd5b80635aa6e6751461029c578063718da7ee146102ad57806374011235146102c057600080fd5b806320403b91116101455780633ef8d97e1161011f5780633ef8d97e146102565780635617a6e814610269578063573761981461028957600080fd5b806320403b9114610210578063238efcbc1461023b57806323b3009b1461024357600080fd5b80631c930221116101765780631c930221146101cd5780631e810db3146101ea5780631e9a6950146101fd57600080fd5b80630abb6035146101925780631b9edc4c146101a7575b600080fd5b6101a56101a0366004611e14565b61035e565b005b6101ba6101b5366004611e6a565b61044e565b6040519081526020015b60405180910390f35b600254600160a01b900460ff1660405190151581526020016101c4565b6101a56101f8366004611e96565b6105d6565b6101a561020b366004611e6a565b610788565b600454610223906001600160a01b031681565b6040516001600160a01b0390911681526020016101c4565b6101a56108af565b6101ba610251366004611e14565b610a15565b600354610223906001600160a01b031681565b6101ba610277366004611e14565b60086020526000908152604090205481565b6101a5610297366004611e6a565b610b1f565b6001546001600160a01b0316610223565b6101a56102bb366004611e14565b610bd1565b600554610223906001600160a01b031681565b6101a56102e1366004611e31565b610cdf565b6101a5610e37565b6101a5610f94565b6101ba610304366004611e14565b6110ee565b6101ba610317366004611e6a565b61127a565b6101ba63626dcd8081565b600654610223906001600160a01b031681565b6002546001600160a01b0316610223565b600754610223906001600160a01b031681565b600254600160a01b900460ff16156103b15760405162461bcd60e51b815260206004820152601160248201527019dbdd995c9b985b98d9481b1bd8dad959607a1b60448201526064015b60405180910390fd5b6001546001600160a01b031633146103f95760405162461bcd60e51b815260206004820152600b60248201526a21676f7665726e616e636560a81b60448201526064016103a8565b600280546001600160a01b0319166001600160a01b0383169081179091556040519081527fd61ed858909d3cb796547804c47dc1550d27455f8a0037b6b487e46212392396906020015b60405180910390a150565b600654604051634491a7cb60e01b81526001600160a01b0384811660048301526000921690634491a7cb9060240160206040518083038186803b15801561049457600080fd5b505afa1580156104a8573d6000803e3d6000fd5b505050506040513d601f19601f820116820180604052508101906104cc9190611f07565b6105185760405162461bcd60e51b815260206004820152601660248201527f746f6b656e20696e206e6f7420737570706f727465640000000000000000000060448201526064016103a8565b60006002846001600160a01b031663313ce5676040518163ffffffff1660e01b815260040160206040518083038186803b15801561055557600080fd5b505afa158015610569573d6000803e3d6000fd5b505050506040513d601f19601f8201168201806040525081019061058d9190611f42565b6105979190612178565b6105a290600a612097565b6105ad906003612142565b9050806105c284670de0b6b3a7640000612142565b6105cc9190612032565b9150505b92915050565b600260005414156106295760405162461bcd60e51b815260206004820152601f60248201527f5265656e7472616e637947756172643a207265656e7472616e742063616c6c0060448201526064016103a8565b600260005560405163d505accf60e01b81526001600160a01b038681166004830152306024830152604482018890526064820186905260ff8516608483015260a4820184905260c4820183905288169063d505accf9060e401600060405180830381600087803b15801561069c57600080fd5b505af11580156106b0573d6000803e3d6000fd5b505050506106bf8787876113ee565b60075490965087906106de90829033906001600160a01b03168a611b57565b6040516370a0823160e01b81523060048201526000906001600160a01b038316906370a082319060240160206040518083038186803b15801561072057600080fd5b505afa158015610734573d6000803e3d6000fd5b505050506040513d601f19601f820116820180604052508101906107589190611f29565b90508015610778576007546107789083906001600160a01b031683611bef565b5050600160005550505050505050565b600260005414156107db5760405162461bcd60e51b815260206004820152601f60248201527f5265656e7472616e637947756172643a207265656e7472616e742063616c6c0060448201526064016103a8565b60026000556107eb8282336113ee565b600754909150829061080a90829033906001600160a01b031685611b57565b6040516370a0823160e01b81523060048201526000906001600160a01b038316906370a082319060240160206040518083038186803b15801561084c57600080fd5b505afa158015610860573d6000803e3d6000fd5b505050506040513d601f19601f820116820180604052508101906108849190611f29565b905080156108a4576007546108a49083906001600160a01b031683611bef565b505060016000555050565b600254600160a01b900460ff16156108fd5760405162461bcd60e51b815260206004820152601160248201527019dbdd995c9b985b98d9481b1bd8dad959607a1b60448201526064016103a8565b6002546001600160a01b031633146109575760405162461bcd60e51b815260206004820152601360248201527f2170656e64696e6720676f7665726e616e63650000000000000000000000000060448201526064016103a8565b6002546001600160a01b03166109af5760405162461bcd60e51b815260206004820152600f60248201527f7a65726f20676f7665726e616e6365000000000000000000000000000000000060448201526064016103a8565b60018054600280546001600160a01b038082166001600160a01b0319808616821790965594909116909155604080519190921680825260208201939093527f5f56bee8cffbe9a78652a74a60705edede02af10b0bbb888ca44b79a0d42ce809101610443565b600654604051634c2801f960e01b81526001600160a01b03838116600483015260009216908190634c2801f99060240160206040518083038186803b158015610a5d57600080fd5b505afa158015610a71573d6000803e3d6000fd5b505050506040513d601f19601f82011682018060405250810190610a959190611f29565b604051634c1bb5a560e11b81526001600160a01b0385811660048301528316906398376b4a9060240160206040518083038186803b158015610ad657600080fd5b505afa158015610aea573d6000803e3d6000fd5b505050506040513d601f19601f82011682018060405250810190610b0e9190611f29565b610b189190612161565b9392505050565b600254600160a01b900460ff1615610b6d5760405162461bcd60e51b815260206004820152601160248201527019dbdd995c9b985b98d9481b1bd8dad959607a1b60448201526064016103a8565b6001546001600160a01b03163314610bb55760405162461bcd60e51b815260206004820152600b60248201526a21676f7665726e616e636560a81b60448201526064016103a8565b600754610bcd9083906001600160a01b031683611bef565b5050565b600254600160a01b900460ff1615610c1f5760405162461bcd60e51b815260206004820152601160248201527019dbdd995c9b985b98d9481b1bd8dad959607a1b60448201526064016103a8565b6001546001600160a01b03163314610c675760405162461bcd60e51b815260206004820152600b60248201526a21676f7665726e616e636560a81b60448201526064016103a8565b6001600160a01b038116610cbd5760405162461bcd60e51b815260206004820152601560248201527f7a65726f2061646472657373207265636569766572000000000000000000000060448201526064016103a8565b600780546001600160a01b0319166001600160a01b0392909216919091179055565b600254600160a01b900460ff1615610d2d5760405162461bcd60e51b815260206004820152601160248201527019dbdd995c9b985b98d9481b1bd8dad959607a1b60448201526064016103a8565b6001546001600160a01b03163314610d755760405162461bcd60e51b815260206004820152600b60248201526a21676f7665726e616e636560a81b60448201526064016103a8565b600654604051630abb603560e01b81526001600160a01b03848116600483015290911690630abb603590602401600060405180830381600087803b158015610dbc57600080fd5b505af1158015610dd0573d6000803e3d6000fd5b50506006546040516338c6d3f760e11b81526001600160a01b038581166004830152909116925063718da7ee9150602401600060405180830381600087803b158015610e1b57600080fd5b505af1158015610e2f573d6000803e3d6000fd5b505050505050565b600254600160a01b900460ff1615610e855760405162461bcd60e51b815260206004820152601160248201527019dbdd995c9b985b98d9481b1bd8dad959607a1b60448201526064016103a8565b6001546001600160a01b03163314610ecd5760405162461bcd60e51b815260206004820152600b60248201526a21676f7665726e616e636560a81b60448201526064016103a8565b600660009054906101000a90046001600160a01b03166001600160a01b031663238efcbc6040518163ffffffff1660e01b8152600401600060405180830381600087803b158015610f1d57600080fd5b505af1158015610f31573d6000803e3d6000fd5b50506006546040516338c6d3f760e11b81523060048201526001600160a01b03909116925063718da7ee9150602401600060405180830381600087803b158015610f7a57600080fd5b505af1158015610f8e573d6000803e3d6000fd5b50505050565b600254600160a01b900460ff1615610fe25760405162461bcd60e51b815260206004820152601160248201527019dbdd995c9b985b98d9481b1bd8dad959607a1b60448201526064016103a8565b6001546001600160a01b0316331461102a5760405162461bcd60e51b815260206004820152600b60248201526a21676f7665726e616e636560a81b60448201526064016103a8565b60028054600180546001600160a01b036001600160a01b031990911681179091557fffffffffffffffffffffff0000000000000000000000000000000000000000009091167401ffffffffffffffffffffffffffffffffffffffff179091556040805133815260208101929092527f5f56bee8cffbe9a78652a74a60705edede02af10b0bbb888ca44b79a0d42ce80910160405180910390a16040517fd572292b9e5d684b0719ae2d0e210513b477e303c975ed1c63b6fcac1607672790600090a1565b60065460048054604051634c2801f960e01b81526001600160a01b038581169382019390935260009383169290911690819063ab53eafd908490634c2801f99060240160206040518083038186803b15801561114957600080fd5b505afa15801561115d573d6000803e3d6000fd5b505050506040513d601f19601f820116820180604052508101906111819190611f29565b604051634c1bb5a560e11b81526001600160a01b0388811660048301528616906398376b4a9060240160206040518083038186803b1580156111c257600080fd5b505afa1580156111d6573d6000803e3d6000fd5b505050506040513d601f19601f820116820180604052508101906111fa9190611f29565b6112049190612161565b6040518263ffffffff1660e01b815260040161122291815260200190565b60206040518083038186803b15801561123a57600080fd5b505afa15801561124e573d6000803e3d6000fd5b505050506040513d601f19601f820116820180604052508101906112729190611f29565b949350505050565b600654604051634491a7cb60e01b81526001600160a01b0384811660048301526000921690634491a7cb9060240160206040518083038186803b1580156112c057600080fd5b505afa1580156112d4573d6000803e3d6000fd5b505050506040513d601f19601f820116820180604052508101906112f89190611f07565b6113445760405162461bcd60e51b815260206004820152601660248201527f746f6b656e20696e206e6f7420737570706f727465640000000000000000000060448201526064016103a8565b60006002846001600160a01b031663313ce5676040518163ffffffff1660e01b815260040160206040518083038186803b15801561138157600080fd5b505afa158015611395573d6000803e3d6000fd5b505050506040513d601f19601f820116820180604052508101906113b99190611f42565b6113c39190612178565b6113ce90600a612097565b6113d9906003612142565b9050670de0b6b3a76400006105c28285612142565b60065460048054604051634491a7cb60e01b81526001600160a01b0387811693820193909352600093831692909116908290634491a7cb9060240160206040518083038186803b15801561144157600080fd5b505afa158015611455573d6000803e3d6000fd5b505050506040513d601f19601f820116820180604052508101906114799190611f07565b6114c55760405162461bcd60e51b815260206004820152601660248201527f746f6b656e20696e206e6f7420737570706f727465640000000000000000000060448201526064016103a8565b604051634c1bb5a560e11b81526001600160a01b03858116600483015260009182918291908616906398376b4a9060240160206040518083038186803b15801561150e57600080fd5b505afa158015611522573d6000803e3d6000fd5b505050506040513d601f19601f820116820180604052508101906115469190611f29565b60405163ab53eafd60e01b8152670de0b6b3a764000060048201529091506000906001600160a01b0386169063ab53eafd9060240160206040518083038186803b15801561159357600080fd5b505afa1580156115a7573d6000803e3d6000fd5b505050506040513d601f19601f820116820180604052508101906115cb9190611f29565b9050600060028b6001600160a01b031663313ce5676040518163ffffffff1660e01b815260040160206040518083038186803b15801561160a57600080fd5b505afa15801561161e573d6000803e3d6000fd5b505050506040513d601f19601f820116820180604052508101906116429190611f42565b61164c9190612178565b61165790600a612097565b611662906003612142565b90506000670de0b6b3a76400006116798484612142565b6116839190612032565b9050816116988c670de0b6b3a7640000612142565b6116a29190612032565b9550806116b78c670de0b6b3a7640000612142565b6116c19190612032565b604051634c2801f960e01b81526001600160a01b038c811660048301529196506000918a1690634c2801f99060240160206040518083038186803b15801561170857600080fd5b505afa15801561171c573d6000803e3d6000fd5b505050506040513d601f19601f820116820180604052508101906117409190611f29565b61174a9086612161565b90508086111561179a57945084670de0b6b3a764000061176a8383612142565b6117749190612032565b9950826117898b670de0b6b3a7640000612142565b6117939190612032565b965061179e565b8b99505b5060009250600191506117ae9050565b6040519080825280602002602001820160405280156117d7578160200160208202803683370190505b50905087816000815181106117ee576117ee6121dd565b6001600160a01b0392909216602092830291909101909101526040805160018082528183019092526000918160200160208202803683370190505090506118358484612161565b81600081518110611848576118486121dd565b6020908102919091010152604051635aff3d8d60e11b81526001600160a01b0388169063b5fe7b1a906118819085908590600401611f7b565b600060405180830381600087803b15801561189b57600080fd5b505af11580156118af573d6000803e3d6000fd5b5050604051631ad7e35d60e11b8152600481018790526001600160a01b038a1692506335afc6ba9150602401600060405180830381600087803b1580156118f557600080fd5b505af1158015611909573d6000803e3d6000fd5b50506040516305c2fbcf60e31b8152600481018790526001600160a01b0389169450632e17de789350602401915061193e9050565b602060405180830381600087803b15801561195857600080fd5b505af115801561196c573d6000803e3d6000fd5b505050506040513d601f19601f820116820180604052508101906119909190611f29565b6001600160a01b038089166000908152600860205260409020546005549295509116811580611a345750604051634f558e7960e01b8152600481018390526001600160a01b03821690634f558e799060240160206040518083038186803b1580156119fa57600080fd5b505afa158015611a0e573d6000803e3d6000fd5b505050506040513d601f19601f82011682018060405250810190611a329190611f07565b155b15611ae75760405163650e150560e01b81526001600160a01b038a811660048301526024820187905263626dcd80604483015282169063650e150590606401602060405180830381600087803b158015611a8d57600080fd5b505af1158015611aa1573d6000803e3d6000fd5b505050506040513d601f19601f82011682018060405250810190611ac59190611f29565b6001600160a01b038a1660009081526008602052604090208190559150611b49565b60405163b2383e5560e01b815260048101839052602481018690526001600160a01b0382169063b2383e5590604401600060405180830381600087803b158015611b3057600080fd5b505af1158015611b44573d6000803e3d6000fd5b505050505b505050505050509392505050565b6040516001600160a01b0380851660248301528316604482015260648101829052610f8e9085906323b872dd60e01b906084015b60408051601f198184030181529190526020810180517bffffffffffffffffffffffffffffffffffffffffffffffffffffffff167fffffffff0000000000000000000000000000000000000000000000000000000090931692909217909152611c24565b6040516001600160a01b038316602482015260448101829052611c1f90849063a9059cbb60e01b90606401611b8b565b505050565b6000611c79826040518060400160405280602081526020017f5361666545524332303a206c6f772d6c6576656c2063616c6c206661696c6564815250856001600160a01b0316611d099092919063ffffffff16565b805190915015611c1f5780806020019051810190611c979190611f07565b611c1f5760405162461bcd60e51b815260206004820152602a60248201527f5361666545524332303a204552433230206f7065726174696f6e20646964206e60448201527f6f7420737563636565640000000000000000000000000000000000000000000060648201526084016103a8565b6060611272848460008585843b611d625760405162461bcd60e51b815260206004820152601d60248201527f416464726573733a2063616c6c20746f206e6f6e2d636f6e747261637400000060448201526064016103a8565b600080866001600160a01b03168587604051611d7e9190611f5f565b60006040518083038185875af1925050503d8060008114611dbb576040519150601f19603f3d011682016040523d82523d6000602084013e611dc0565b606091505b5091509150611dd0828286611ddb565b979650505050505050565b60608315611dea575081610b18565b825115611dfa5782518084602001fd5b8160405162461bcd60e51b81526004016103a89190611fff565b600060208284031215611e2657600080fd5b8135610b18816121f3565b60008060408385031215611e4457600080fd5b8235611e4f816121f3565b91506020830135611e5f816121f3565b809150509250929050565b60008060408385031215611e7d57600080fd5b8235611e88816121f3565b946020939093013593505050565b600080600080600080600060e0888a031215611eb157600080fd5b8735611ebc816121f3565b9650602088013595506040880135611ed3816121f3565b9450606088013593506080880135611eea8161220b565b9699959850939692959460a0840135945060c09093013592915050565b600060208284031215611f1957600080fd5b81518015158114610b1857600080fd5b600060208284031215611f3b57600080fd5b5051919050565b600060208284031215611f5457600080fd5b8151610b188161220b565b60008251611f7181846020870161219b565b9190910192915050565b604080825283519082018190526000906020906060840190828701845b82811015611fbd5781516001600160a01b031684529284019290840190600101611f98565b5050508381038285015284518082528583019183019060005b81811015611ff257835183529284019291840191600101611fd6565b5090979650505050505050565b602081526000825180602084015261201e81604085016020870161219b565b601f01601f19169190910160400192915050565b60008261204f57634e487b7160e01b600052601260045260246000fd5b500490565b600181815b8085111561208f578160001904821115612075576120756121c7565b8085161561208257918102915b93841c9390800290612059565b509250929050565b6000610b1860ff8416836000826120b0575060016105d0565b816120bd575060006105d0565b81600181146120d357600281146120dd576120f9565b60019150506105d0565b60ff8411156120ee576120ee6121c7565b50506001821b6105d0565b5060208310610133831016604e8410600b841016171561211c575081810a6105d0565b6121268383612054565b806000190482111561213a5761213a6121c7565b029392505050565b600081600019048311821515161561215c5761215c6121c7565b500290565b600082821015612173576121736121c7565b500390565b600060ff821660ff841680821015612192576121926121c7565b90039392505050565b60005b838110156121b657818101518382015260200161219e565b83811115610f8e5750506000910152565b634e487b7160e01b600052601160045260246000fd5b634e487b7160e01b600052603260045260246000fd5b6001600160a01b038116811461220857600080fd5b50565b60ff8116811461220857600080fdfea2646970667358221220340ac39c2274530649ddbd7bda6b6877556027f0c21241a42cc4e81d33edc44564736f6c63430008060033",
  "linkReferences": {},
  "deployedLinkReferences": {}
}