{
  "_format": "hh-sol-artifact-1",
  "contractName": "StakingRewards",
  "sourceName": "contracts/StakingRewards.sol",
  "abi": [
    {
      "inputs": [
        {
          "internalType": "address",
          "name": "governance_",
          "type": "address"
        },
        {
          "internalType": "address",
          "name": "solace_",
          "type": "address"
        },
        {
          "internalType": "address",
          "name": "xsLocker_",
          "type": "address"
        },
        {
          "internalType": "uint256",
          "name": "startTime_",
          "type": "uint256"
        },
        {
          "internalType": "uint256",
          "name": "endTime_",
          "type": "uint256"
        },
        {
          "internalType": "uint256",
          "name": "rewardPerSecond_",
          "type": "uint256"
        }
      ],
      "stateMutability": "nonpayable",
      "type": "constructor"
    },
    {
      "anonymous": false,
      "inputs": [
        {
          "indexed": false,
          "internalType": "uint256",
          "name": "endTime",
          "type": "uint256"
        }
      ],
      "name": "FarmEndSet",
      "type": "event"
    },
    {
      "anonymous": false,
      "inputs": [],
      "name": "GovernanceLocked",
      "type": "event"
    },
    {
      "anonymous": false,
      "inputs": [
        {
          "indexed": false,
          "internalType": "address",
          "name": "pendingGovernance",
          "type": "address"
        }
      ],
      "name": "GovernancePending",
      "type": "event"
    },
    {
      "anonymous": false,
      "inputs": [
        {
          "indexed": false,
          "internalType": "address",
          "name": "oldGovernance",
          "type": "address"
        },
        {
          "indexed": false,
          "internalType": "address",
          "name": "newGovernance",
          "type": "address"
        }
      ],
      "name": "GovernanceTransferred",
      "type": "event"
    },
    {
      "anonymous": false,
      "inputs": [
        {
          "indexed": true,
          "internalType": "uint256",
          "name": "xsLockID",
          "type": "uint256"
        }
      ],
      "name": "LockUpdated",
      "type": "event"
    },
    {
      "anonymous": false,
      "inputs": [
        {
          "indexed": false,
          "internalType": "uint256",
          "name": "rewardPerSecond",
          "type": "uint256"
        }
      ],
      "name": "RewardsSet",
      "type": "event"
    },
    {
      "anonymous": false,
      "inputs": [],
      "name": "Updated",
      "type": "event"
    },
    {
      "inputs": [],
      "name": "MAX_LOCK_DURATION",
      "outputs": [
        {
          "internalType": "uint256",
          "name": "",
          "type": "uint256"
        }
      ],
      "stateMutability": "view",
      "type": "function"
    },
    {
      "inputs": [],
      "name": "MAX_LOCK_MULTIPLIER_BPS",
      "outputs": [
        {
          "internalType": "uint256",
          "name": "",
          "type": "uint256"
        }
      ],
      "stateMutability": "view",
      "type": "function"
    },
    {
      "inputs": [],
      "name": "UNLOCKED_MULTIPLIER_BPS",
      "outputs": [
        {
          "internalType": "uint256",
          "name": "",
          "type": "uint256"
        }
      ],
      "stateMutability": "view",
      "type": "function"
    },
    {
      "inputs": [],
      "name": "accRewardPerShare",
      "outputs": [
        {
          "internalType": "uint256",
          "name": "",
          "type": "uint256"
        }
      ],
      "stateMutability": "view",
      "type": "function"
    },
    {
      "inputs": [],
      "name": "acceptGovernance",
      "outputs": [],
      "stateMutability": "nonpayable",
      "type": "function"
    },
    {
      "inputs": [],
      "name": "endTime",
      "outputs": [
        {
          "internalType": "uint256",
          "name": "",
          "type": "uint256"
        }
      ],
      "stateMutability": "view",
      "type": "function"
    },
    {
      "inputs": [
        {
          "internalType": "uint256",
          "name": "from",
          "type": "uint256"
        },
        {
          "internalType": "uint256",
          "name": "to",
          "type": "uint256"
        }
      ],
      "name": "getRewardAmountDistributed",
      "outputs": [
        {
          "internalType": "uint256",
          "name": "amount",
          "type": "uint256"
        }
      ],
      "stateMutability": "view",
      "type": "function"
    },
    {
      "inputs": [],
      "name": "governance",
      "outputs": [
        {
          "internalType": "address",
          "name": "",
          "type": "address"
        }
      ],
      "stateMutability": "view",
      "type": "function"
    },
    {
      "inputs": [],
      "name": "governanceIsLocked",
      "outputs": [
        {
          "internalType": "bool",
          "name": "",
          "type": "bool"
        }
      ],
      "stateMutability": "view",
      "type": "function"
    },
    {
      "inputs": [
        {
          "internalType": "uint256",
          "name": "xsLockID",
          "type": "uint256"
        }
      ],
      "name": "harvestLock",
      "outputs": [],
      "stateMutability": "nonpayable",
      "type": "function"
    },
    {
      "inputs": [
        {
          "internalType": "uint256[]",
          "name": "xsLockIDs",
          "type": "uint256[]"
        }
      ],
      "name": "harvestLocks",
      "outputs": [],
      "stateMutability": "nonpayable",
      "type": "function"
    },
    {
      "inputs": [
        {
          "internalType": "address",
          "name": "user",
          "type": "address"
        }
      ],
      "name": "harvestUser",
      "outputs": [],
      "stateMutability": "nonpayable",
      "type": "function"
    },
    {
      "inputs": [],
      "name": "lastRewardTime",
      "outputs": [
        {
          "internalType": "uint256",
          "name": "",
          "type": "uint256"
        }
      ],
      "stateMutability": "view",
      "type": "function"
    },
    {
      "inputs": [],
      "name": "lockGovernance",
      "outputs": [],
      "stateMutability": "nonpayable",
      "type": "function"
    },
    {
      "inputs": [],
      "name": "pendingGovernance",
      "outputs": [
        {
          "internalType": "address",
          "name": "",
          "type": "address"
        }
      ],
      "stateMutability": "view",
      "type": "function"
    },
    {
      "inputs": [
        {
          "internalType": "uint256",
          "name": "xsLockID",
          "type": "uint256"
        }
      ],
      "name": "pendingRewardsOfLock",
      "outputs": [
        {
          "internalType": "uint256",
          "name": "reward",
          "type": "uint256"
        }
      ],
      "stateMutability": "view",
      "type": "function"
    },
    {
      "inputs": [
        {
          "internalType": "address",
          "name": "user",
          "type": "address"
        }
      ],
      "name": "pendingRewardsOfUser",
      "outputs": [
        {
          "internalType": "uint256",
          "name": "reward",
          "type": "uint256"
        }
      ],
      "stateMutability": "view",
      "type": "function"
    },
    {
      "inputs": [
        {
          "internalType": "uint256",
          "name": "xsLockID",
          "type": "uint256"
        },
        {
          "internalType": "address",
          "name": "oldOwner",
          "type": "address"
        },
        {
          "internalType": "address",
          "name": "newOwner",
          "type": "address"
        },
        {
          "components": [
            {
              "internalType": "uint256",
              "name": "amount",
              "type": "uint256"
            },
            {
              "internalType": "uint256",
              "name": "end",
              "type": "uint256"
            }
          ],
          "internalType": "struct Lock",
          "name": "oldLock",
          "type": "tuple"
        },
        {
          "components": [
            {
              "internalType": "uint256",
              "name": "amount",
              "type": "uint256"
            },
            {
              "internalType": "uint256",
              "name": "end",
              "type": "uint256"
            }
          ],
          "internalType": "struct Lock",
          "name": "newLock",
          "type": "tuple"
        }
      ],
      "name": "registerLockEvent",
      "outputs": [],
      "stateMutability": "nonpayable",
      "type": "function"
    },
    {
      "inputs": [
        {
          "internalType": "address",
          "name": "token",
          "type": "address"
        },
        {
          "internalType": "uint256",
          "name": "amount",
          "type": "uint256"
        },
        {
          "internalType": "address",
          "name": "receiver",
          "type": "address"
        }
      ],
      "name": "rescueTokens",
      "outputs": [],
      "stateMutability": "nonpayable",
      "type": "function"
    },
    {
      "inputs": [],
      "name": "rewardPerSecond",
      "outputs": [
        {
          "internalType": "uint256",
          "name": "",
          "type": "uint256"
        }
      ],
      "stateMutability": "view",
      "type": "function"
    },
    {
      "inputs": [
        {
          "internalType": "uint256",
          "name": "endTime_",
          "type": "uint256"
        }
      ],
      "name": "setEnd",
      "outputs": [],
      "stateMutability": "nonpayable",
      "type": "function"
    },
    {
      "inputs": [
        {
          "internalType": "address",
          "name": "pendingGovernance_",
          "type": "address"
        }
      ],
      "name": "setPendingGovernance",
      "outputs": [],
      "stateMutability": "nonpayable",
      "type": "function"
    },
    {
      "inputs": [
        {
          "internalType": "uint256",
          "name": "rewardPerSecond_",
          "type": "uint256"
        }
      ],
      "name": "setRewards",
      "outputs": [],
      "stateMutability": "nonpayable",
      "type": "function"
    },
    {
      "inputs": [],
      "name": "solace",
      "outputs": [
        {
          "internalType": "address",
          "name": "",
          "type": "address"
        }
      ],
      "stateMutability": "view",
      "type": "function"
    },
    {
      "inputs": [
        {
          "internalType": "uint256",
          "name": "xsLockID",
          "type": "uint256"
        }
      ],
      "name": "stakedLockInfo",
      "outputs": [
        {
          "components": [
            {
              "internalType": "uint256",
              "name": "value",
              "type": "uint256"
            },
            {
              "internalType": "uint256",
              "name": "rewardDebt",
              "type": "uint256"
            },
            {
              "internalType": "uint256",
              "name": "unpaidRewards",
              "type": "uint256"
            },
            {
              "internalType": "address",
              "name": "owner",
              "type": "address"
            }
          ],
          "internalType": "struct IStakingRewards.StakedLockInfo",
          "name": "",
          "type": "tuple"
        }
      ],
      "stateMutability": "view",
      "type": "function"
    },
    {
      "inputs": [],
      "name": "startTime",
      "outputs": [
        {
          "internalType": "uint256",
          "name": "",
          "type": "uint256"
        }
      ],
      "stateMutability": "view",
      "type": "function"
    },
    {
      "inputs": [],
      "name": "update",
      "outputs": [],
      "stateMutability": "nonpayable",
      "type": "function"
    },
    {
      "inputs": [],
      "name": "valueStaked",
      "outputs": [
        {
          "internalType": "uint256",
          "name": "",
          "type": "uint256"
        }
      ],
      "stateMutability": "view",
      "type": "function"
    },
    {
      "inputs": [],
      "name": "xsLocker",
      "outputs": [
        {
          "internalType": "address",
          "name": "",
          "type": "address"
        }
      ],
      "stateMutability": "view",
      "type": "function"
    }
  ],
  "bytecode": "0x60806040523480156200001157600080fd5b5060405162001fea38038062001fea833981016040819052620000349162000213565b6001600055856001600160a01b038116620000965760405162461bcd60e51b815260206004820152601760248201527f7a65726f206164647265737320676f7665726e616e636500000000000000000060448201526064015b60405180910390fd5b600180546001600160a01b0319166001600160a01b03928316179055600280546001600160a81b03191690558516620001125760405162461bcd60e51b815260206004820152601360248201527f7a65726f206164647265737320736f6c6163650000000000000000000000000060448201526064016200008d565b600380546001600160a01b0319166001600160a01b03878116919091179091558416620001825760405162461bcd60e51b815260206004820152601560248201527f7a65726f20616464726573732078736c6f636b6572000000000000000000000060448201526064016200008d565b600480546001600160a01b0319166001600160a01b03861617905581831115620001e05760405162461bcd60e51b815260206004820152600e60248201526d696e76616c69642077696e646f7760901b60448201526064016200008d565b6006929092556007556005555062000279915050565b80516001600160a01b03811681146200020e57600080fd5b919050565b60008060008060008060c087890312156200022d57600080fd5b6200023887620001f6565b95506200024860208801620001f6565b94506200025860408801620001f6565b9350606087015192506080870151915060a087015190509295509295509295565b611d6180620002896000396000f3fe608060405234801561001057600080fd5b50600436106101cf5760003560e01c806378e9792511610104578063abbf4b17116100a2578063c9b96c8111610071578063c9b96c81146103b5578063d517b34b146103c8578063f39c38a0146103db578063fe4ca1a9146103ec57600080fd5b8063abbf4b1714610374578063b37fd1901461037c578063b38a742e1461038f578063c7a29c6f146103a257600080fd5b80638f10369a116100de5780638f10369a146103515780639231cf741461035a578063939d623714610363578063a2e620451461036c57600080fd5b806378e97925146103225780637f498ffc1461032b578063891344e71461033e57600080fd5b80633ef8d97e116101715780635aa6e6751161014b5780635aa6e675146102ec5780635f5f83fa146102fd5780636ae5b46a14610306578063740112351461030f57600080fd5b80633ef8d97e146102a35780634f1bfc9e146102ce57806354e01889146102d957600080fd5b80631c930221116101ad5780631c93022114610254578063238efcbc146102715780632e423b4c146102795780633197cbb61461028c57600080fd5b80630abb6035146101d45780630e0f74ed146101e957806312a6ee62146101fc575b600080fd5b6101e76101e236600461192e565b6103f5565b005b6101e76101f73660046119aa565b6104e5565b61020f61020a366004611ac8565b610590565b60405161024b91908151815260208083015190820152604080830151908201526060918201516001600160a01b03169181019190915260800190565b60405180910390f35b600254600160a01b900460ff16604051901515815260200161024b565b6101e7610612565b6101e7610287366004611ac8565b610778565b61029560075481565b60405190815260200161024b565b6003546102b6906001600160a01b031681565b6040516001600160a01b03909116815260200161024b565b610295630784ce0081565b6102956102e7366004611b5e565b6107e9565b6001546001600160a01b03166102b6565b61029561271081565b610295600a5481565b6004546102b6906001600160a01b031681565b61029560065481565b6101e7610339366004611ac8565b610837565b6101e761034c36600461192e565b610902565b61029560055481565b61029560085481565b61029560095481565b6101e76109c0565b6101e7610a63565b6101e761038a366004611968565b610bbd565b61029561039d36600461192e565b610c63565b6101e76103b0366004611ac8565b610d77565b6102956103c3366004611ac8565b610e42565b6101e76103d6366004611afa565b610ee9565b6002546001600160a01b03166102b6565b6102956161a881565b600254600160a01b900460ff16156104485760405162461bcd60e51b815260206004820152601160248201527019dbdd995c9b985b98d9481b1bd8dad959607a1b60448201526064015b60405180910390fd5b6001546001600160a01b031633146104905760405162461bcd60e51b815260206004820152600b60248201526a21676f7665726e616e636560a81b604482015260640161043f565b600280546001600160a01b0319166001600160a01b0383169081179091556040519081527fd61ed858909d3cb796547804c47dc1550d27455f8a0037b6b487e46212392396906020015b60405180910390a150565b600260005414156105385760405162461bcd60e51b815260206004820152601f60248201527f5265656e7472616e637947756172643a207265656e7472616e742063616c6c00604482015260640161043f565b60026000556105456109c0565b805160005b818110156105865761057483828151811061056757610567611ce7565b6020026020010151610f5e565b8061057e81611ca0565b91505061054a565b5050600160005550565b6105c4604051806080016040528060008152602001600081526020016000815260200160006001600160a01b031681525090565b506000908152600c60209081526040918290208251608081018452815481526001820154928101929092526002810154928201929092526003909101546001600160a01b0316606082015290565b600254600160a01b900460ff16156106605760405162461bcd60e51b815260206004820152601160248201527019dbdd995c9b985b98d9481b1bd8dad959607a1b604482015260640161043f565b6002546001600160a01b031633146106ba5760405162461bcd60e51b815260206004820152601360248201527f2170656e64696e6720676f7665726e616e636500000000000000000000000000604482015260640161043f565b6002546001600160a01b03166107125760405162461bcd60e51b815260206004820152600f60248201527f7a65726f20676f7665726e616e63650000000000000000000000000000000000604482015260640161043f565b60018054600280546001600160a01b038082166001600160a01b0319808616821790965594909116909155604080519190921680825260208201939093527f5f56bee8cffbe9a78652a74a60705edede02af10b0bbb888ca44b79a0d42ce8091016104da565b600260005414156107cb5760405162461bcd60e51b815260206004820152601f60248201527f5265656e7472616e637947756172643a207265656e7472616e742063616c6c00604482015260640161043f565b60026000556107d86109c0565b6107e181610f5e565b506001600055565b60006107f78360065461122d565b925061080582600754611244565b91508183111561081757506000610831565b6005546108248484611c59565b61082e9190611c3a565b90505b92915050565b600254600160a01b900460ff16156108855760405162461bcd60e51b815260206004820152601160248201527019dbdd995c9b985b98d9481b1bd8dad959607a1b604482015260640161043f565b6001546001600160a01b031633146108cd5760405162461bcd60e51b815260206004820152600b60248201526a21676f7665726e616e636560a81b604482015260640161043f565b60078190556040518181527f0a8622338aaf5242929bad810dc991da2c6891581d101eeb840f1ca188a304ab906020016104da565b600260005414156109555760405162461bcd60e51b815260206004820152601f60248201527f5265656e7472616e637947756172643a207265656e7472616e742063616c6c00604482015260640161043f565b60026000556109626109c0565b6001600160a01b0381166000908152600b602052604081209061098482611253565b905060005b818110156109b5576109a361099e848361125d565b610f5e565b806109ad81611ca0565b915050610989565b505060016000555050565b6040517ff2e795d4a33ae9a0d3282888375b8ae781ea4de1cbf101ac96150aa95ccff0b490600090a160085442116109f457565b600a54610a0c57610a0742600754611244565b600855565b6000610a1a600854426107e9565b600a54909150610a2f64e8d4a5100083611c3a565b610a399190611c18565b60096000828254610a4a9190611c00565b92505081905550610a5d42600754611244565b60085550565b600254600160a01b900460ff1615610ab15760405162461bcd60e51b815260206004820152601160248201527019dbdd995c9b985b98d9481b1bd8dad959607a1b604482015260640161043f565b6001546001600160a01b03163314610af95760405162461bcd60e51b815260206004820152600b60248201526a21676f7665726e616e636560a81b604482015260640161043f565b60028054600180546001600160a01b036001600160a01b031990911681179091557fffffffffffffffffffffff0000000000000000000000000000000000000000009091167401ffffffffffffffffffffffffffffffffffffffff179091556040805133815260208101929092527f5f56bee8cffbe9a78652a74a60705edede02af10b0bbb888ca44b79a0d42ce80910160405180910390a16040517fd572292b9e5d684b0719ae2d0e210513b477e303c975ed1c63b6fcac1607672790600090a1565b600254600160a01b900460ff1615610c0b5760405162461bcd60e51b815260206004820152601160248201527019dbdd995c9b985b98d9481b1bd8dad959607a1b604482015260640161043f565b6001546001600160a01b03163314610c535760405162461bcd60e51b815260206004820152600b60248201526a21676f7665726e616e636560a81b604482015260640161043f565b610c5e838284611269565b505050565b6009546008546000919042118015610c7c5750600a5415155b15610cbc576000610c8f600854426107e9565b600a54909150610ca464e8d4a5100083611c3a565b610cae9190611c18565b610cb89083611c00565b9150505b6001600160a01b0383166000908152600b6020526040812090610cde82611253565b90506000935060005b81811015610d6e576000610cfb848361125d565b6000818152600c60205260409020600281015460018201548254939450919290919064e8d4a5100090610d2f908a90611c3a565b610d399190611c18565b610d439190611c59565b610d4d9190611c00565b610d579088611c00565b965050508080610d6690611ca0565b915050610ce7565b50505050919050565b600254600160a01b900460ff1615610dc55760405162461bcd60e51b815260206004820152601160248201527019dbdd995c9b985b98d9481b1bd8dad959607a1b604482015260640161043f565b6001546001600160a01b03163314610e0d5760405162461bcd60e51b815260206004820152600b60248201526a21676f7665726e616e636560a81b604482015260640161043f565b60058190556040518181527f3a9c73865b863f6b3112a48ba71b6cc75b1b5440abddbcba0135c64a4056508b906020016104da565b6000818152600c6020526040812060095460085442118015610e655750600a5415155b15610ea5576000610e78600854426107e9565b600a54909150610e8d64e8d4a5100083611c3a565b610e979190611c18565b610ea19083611c00565b9150505b60028201546001830154835464e8d4a5100090610ec3908590611c3a565b610ecd9190611c18565b610ed79190611c59565b610ee19190611c00565b949350505050565b60026000541415610f3c5760405162461bcd60e51b815260206004820152601f60248201527f5265656e7472616e637947756172643a207265656e7472616e742063616c6c00604482015260640161043f565b6002600055610f496109c0565b610f5285610f5e565b50506001600055505050565b6009546000828152600c60209081526040808320815160808101835281548152600182015493810193909352600281015491830191909152600301546001600160a01b03166060820152908080610fb4866112d0565b925092509250836020015164e8d4a51000868660000151610fd59190611c3a565b610fdf9190611c18565b610fe99190611c59565b84604001818151610ffa9190611c00565b90525060608401516001600160a01b0316156110d4576003546040516370a0823160e01b81523060048201526000916001600160a01b0316906370a082319060240160206040518083038186803b15801561105457600080fd5b505afa158015611068573d6000803e3d6000fd5b505050506040513d601f19601f8201168201806040525081019061108c9190611ae1565b9050600061109e866040015183611244565b905080866040018181516110b29190611c59565b90525060035460608701516110d1916001600160a01b03169083611269565b50505b8351815160208301516000916110e991611493565b808752905064e8d4a510006110fe8883611c3a565b6111089190611c18565b6020870152818114611131578082600a546111239190611c59565b61112d9190611c00565b600a555b85606001516001600160a01b0316846001600160a01b0316146111ae5760608601516001600160a01b03166000908152600b60205260409020611174908961151c565b5084156111ae576001600160a01b0384166000908152600b6020526040902061119d9089611528565b506001600160a01b03841660608701525b6000888152600c60209081526040808320895181559189015160018301558881015160028301556060890151600390920180546001600160a01b0319166001600160a01b03909316929092179091555189917fa7b24c66dd3269a292a60b3facdbb8f3e7557d1e19e64d99e0d6ee7250be63ad91a25050505050505050565b60008183101561123d578161082e565b5090919050565b600081831061123d578161082e565b6000610831825490565b600061082e8383611534565b604080516001600160a01b038416602482015260448082018490528251808303909101815260649091019091526020810180517bffffffffffffffffffffffffffffffffffffffffffffffffffffffff1663a9059cbb60e01b179052610c5e90849061155e565b6000806112f0604051806040016040528060008152602001600081525090565b60048054604051634f558e7960e01b81529182018690526001600160a01b0316908190634f558e799060240160206040518083038186803b15801561133457600080fd5b505afa158015611348573d6000803e3d6000fd5b505050506040513d601f19601f8201168201806040525081019061136c9190611a57565b9350831561146d576040516331a9108f60e11b8152600481018690526001600160a01b03821690636352211e9060240160206040518083038186803b1580156113b457600080fd5b505afa1580156113c8573d6000803e3d6000fd5b505050506040513d601f19601f820116820180604052508101906113ec919061194b565b60405163f4dadc6160e01b8152600481018790529093506001600160a01b0382169063f4dadc6190602401604080518083038186803b15801561142e57600080fd5b505afa158015611442573d6000803e3d6000fd5b505050506040513d601f19601f820116820180604052508101906114669190611a79565b915061148b565b60009250604051806040016040528060008152602001600081525091505b509193909250565b6000806127106114a38186611c3a565b6114ad9190611c18565b9050600042841115611504576114c9612710630784ce00611c3a565b6114d76127106161a8611c59565b6114e14287611c59565b6114eb9088611c3a565b6114f59190611c3a565b6114ff9190611c18565b611507565b60005b90506115138183611c00565b95945050505050565b600061082e8383611643565b600061082e8383611736565b600082600001828154811061154b5761154b611ce7565b9060005260206000200154905092915050565b60006115b3826040518060400160405280602081526020017f5361666545524332303a206c6f772d6c6576656c2063616c6c206661696c6564815250856001600160a01b03166117859092919063ffffffff16565b805190915015610c5e57808060200190518101906115d19190611a57565b610c5e5760405162461bcd60e51b815260206004820152602a60248201527f5361666545524332303a204552433230206f7065726174696f6e20646964206e60448201527f6f74207375636365656400000000000000000000000000000000000000000000606482015260840161043f565b6000818152600183016020526040812054801561172c576000611667600183611c59565b855490915060009061167b90600190611c59565b90508181146116e057600086600001828154811061169b5761169b611ce7565b90600052602060002001549050808760000184815481106116be576116be611ce7565b6000918252602080832090910192909255918252600188019052604090208390555b85548690806116f1576116f1611cd1565b600190038181906000526020600020016000905590558560010160008681526020019081526020016000206000905560019350505050610831565b6000915050610831565b600081815260018301602052604081205461177d57508154600181810184556000848152602080822090930184905584548482528286019093526040902091909155610831565b506000610831565b6060611794848460008561179e565b90505b9392505050565b6060824710156118165760405162461bcd60e51b815260206004820152602660248201527f416464726573733a20696e73756666696369656e742062616c616e636520666f60448201527f722063616c6c0000000000000000000000000000000000000000000000000000606482015260840161043f565b843b6118645760405162461bcd60e51b815260206004820152601d60248201527f416464726573733a2063616c6c20746f206e6f6e2d636f6e7472616374000000604482015260640161043f565b600080866001600160a01b031685876040516118809190611b80565b60006040518083038185875af1925050503d80600081146118bd576040519150601f19603f3d011682016040523d82523d6000602084013e6118c2565b606091505b50915091506118d28282866118dd565b979650505050505050565b606083156118ec575081611797565b8251156118fc5782518084602001fd5b8160405162461bcd60e51b815260040161043f9190611b9c565b60006040828403121561192857600080fd5b50919050565b60006020828403121561194057600080fd5b813561179781611d13565b60006020828403121561195d57600080fd5b815161179781611d13565b60008060006060848603121561197d57600080fd5b833561198881611d13565b925060208401359150604084013561199f81611d13565b809150509250925092565b600060208083850312156119bd57600080fd5b823567ffffffffffffffff808211156119d557600080fd5b818501915085601f8301126119e957600080fd5b8135818111156119fb576119fb611cfd565b8060051b9150611a0c848301611bcf565b8181528481019084860184860187018a1015611a2757600080fd5b600095505b83861015611a4a578035835260019590950194918601918601611a2c565b5098975050505050505050565b600060208284031215611a6957600080fd5b8151801515811461179757600080fd5b600060408284031215611a8b57600080fd5b6040516040810181811067ffffffffffffffff82111715611aae57611aae611cfd565b604052825181526020928301519281019290925250919050565b600060208284031215611ada57600080fd5b5035919050565b600060208284031215611af357600080fd5b5051919050565b600080600080600060e08688031215611b1257600080fd5b853594506020860135611b2481611d13565b93506040860135611b3481611d13565b9250611b438760608801611916565b9150611b528760a08801611916565b90509295509295909350565b60008060408385031215611b7157600080fd5b50508035926020909101359150565b60008251611b92818460208701611c70565b9190910192915050565b6020815260008251806020840152611bbb816040850160208701611c70565b601f01601f19169190910160400192915050565b604051601f8201601f1916810167ffffffffffffffff81118282101715611bf857611bf8611cfd565b604052919050565b60008219821115611c1357611c13611cbb565b500190565b600082611c3557634e487b7160e01b600052601260045260246000fd5b500490565b6000816000190483118215151615611c5457611c54611cbb565b500290565b600082821015611c6b57611c6b611cbb565b500390565b60005b83811015611c8b578181015183820152602001611c73565b83811115611c9a576000848401525b50505050565b6000600019821415611cb457611cb4611cbb565b5060010190565b634e487b7160e01b600052601160045260246000fd5b634e487b7160e01b600052603160045260246000fd5b634e487b7160e01b600052603260045260246000fd5b634e487b7160e01b600052604160045260246000fd5b6001600160a01b0381168114611d2857600080fd5b5056fea26469706673582212207cb07001abc5515f53b560858ff9a58635a2596193b9d25d274837d18fc82cc264736f6c63430008060033",
  "linkReferences": {},
  "deployedLinkReferences": {}
}