{
  "_format": "hh-sol-artifact-1",
  "contractName": "xsLocker",
  "sourceName": "contracts/xsLocker.sol",
  "abi": [
    {
      "inputs": [
        {
          "internalType": "address",
          "name": "governance_",
          "type": "address"
        },
        {
          "internalType": "address",
          "name": "solace_",
          "type": "address"
        }
      ],
      "stateMutability": "nonpayable",
      "type": "constructor"
    },
    {
      "anonymous": false,
      "inputs": [
        {
          "indexed": true,
          "internalType": "address",
          "name": "owner",
          "type": "address"
        },
        {
          "indexed": true,
          "internalType": "address",
          "name": "approved",
          "type": "address"
        },
        {
          "indexed": true,
          "internalType": "uint256",
          "name": "tokenId",
          "type": "uint256"
        }
      ],
      "name": "Approval",
      "type": "event"
    },
    {
      "anonymous": false,
      "inputs": [
        {
          "indexed": true,
          "internalType": "address",
          "name": "owner",
          "type": "address"
        },
        {
          "indexed": true,
          "internalType": "address",
          "name": "operator",
          "type": "address"
        },
        {
          "indexed": false,
          "internalType": "bool",
          "name": "approved",
          "type": "bool"
        }
      ],
      "name": "ApprovalForAll",
      "type": "event"
    },
    {
      "anonymous": false,
      "inputs": [
        {
          "indexed": false,
          "internalType": "string",
          "name": "baseURI",
          "type": "string"
        }
      ],
      "name": "BaseURISet",
      "type": "event"
    },
    {
      "anonymous": false,
      "inputs": [],
      "name": "GovernanceLocked",
      "type": "event"
    },
    {
      "anonymous": false,
      "inputs": [
        {
          "indexed": false,
          "internalType": "address",
          "name": "pendingGovernance",
          "type": "address"
        }
      ],
      "name": "GovernancePending",
      "type": "event"
    },
    {
      "anonymous": false,
      "inputs": [
        {
          "indexed": false,
          "internalType": "address",
          "name": "oldGovernance",
          "type": "address"
        },
        {
          "indexed": false,
          "internalType": "address",
          "name": "newGovernance",
          "type": "address"
        }
      ],
      "name": "GovernanceTransferred",
      "type": "event"
    },
    {
      "anonymous": false,
      "inputs": [
        {
          "indexed": false,
          "internalType": "uint256",
          "name": "xsLockID",
          "type": "uint256"
        }
      ],
      "name": "LockCreated",
      "type": "event"
    },
    {
      "anonymous": false,
      "inputs": [
        {
          "indexed": false,
          "internalType": "uint256",
          "name": "xsLockID",
          "type": "uint256"
        },
        {
          "indexed": false,
          "internalType": "uint256",
          "name": "amount",
          "type": "uint256"
        },
        {
          "indexed": false,
          "internalType": "uint256",
          "name": "end",
          "type": "uint256"
        }
      ],
      "name": "LockUpdated",
      "type": "event"
    },
    {
      "anonymous": false,
      "inputs": [
        {
          "indexed": true,
          "internalType": "address",
          "name": "from",
          "type": "address"
        },
        {
          "indexed": true,
          "internalType": "address",
          "name": "to",
          "type": "address"
        },
        {
          "indexed": true,
          "internalType": "uint256",
          "name": "tokenId",
          "type": "uint256"
        }
      ],
      "name": "Transfer",
      "type": "event"
    },
    {
      "anonymous": false,
      "inputs": [
        {
          "indexed": false,
          "internalType": "uint256",
          "name": "xsLockID",
          "type": "uint256"
        },
        {
          "indexed": false,
          "internalType": "uint256",
          "name": "amount",
          "type": "uint256"
        }
      ],
      "name": "Withdrawl",
      "type": "event"
    },
    {
      "anonymous": false,
      "inputs": [
        {
          "indexed": false,
          "internalType": "address",
          "name": "listener",
          "type": "address"
        }
      ],
      "name": "xsLockListenerAdded",
      "type": "event"
    },
    {
      "anonymous": false,
      "inputs": [
        {
          "indexed": false,
          "internalType": "address",
          "name": "listener",
          "type": "address"
        }
      ],
      "name": "xsLockListenerRemoved",
      "type": "event"
    },
    {
      "inputs": [],
      "name": "DOMAIN_SEPARATOR",
      "outputs": [
        {
          "internalType": "bytes32",
          "name": "seperator",
          "type": "bytes32"
        }
      ],
      "stateMutability": "view",
      "type": "function"
    },
    {
      "inputs": [],
      "name": "MAX_LOCK_DURATION",
      "outputs": [
        {
          "internalType": "uint256",
          "name": "",
          "type": "uint256"
        }
      ],
      "stateMutability": "view",
      "type": "function"
    },
    {
      "inputs": [],
      "name": "PERMIT_TYPEHASH",
      "outputs": [
        {
          "internalType": "bytes32",
          "name": "typehash",
          "type": "bytes32"
        }
      ],
      "stateMutability": "pure",
      "type": "function"
    },
    {
      "inputs": [],
      "name": "acceptGovernance",
      "outputs": [],
      "stateMutability": "nonpayable",
      "type": "function"
    },
    {
      "inputs": [
        {
          "internalType": "address",
          "name": "listener",
          "type": "address"
        }
      ],
      "name": "addXsLockListener",
      "outputs": [],
      "stateMutability": "nonpayable",
      "type": "function"
    },
    {
      "inputs": [
        {
          "internalType": "address",
          "name": "to",
          "type": "address"
        },
        {
          "internalType": "uint256",
          "name": "tokenId",
          "type": "uint256"
        }
      ],
      "name": "approve",
      "outputs": [],
      "stateMutability": "nonpayable",
      "type": "function"
    },
    {
      "inputs": [
        {
          "internalType": "address",
          "name": "owner",
          "type": "address"
        }
      ],
      "name": "balanceOf",
      "outputs": [
        {
          "internalType": "uint256",
          "name": "",
          "type": "uint256"
        }
      ],
      "stateMutability": "view",
      "type": "function"
    },
    {
      "inputs": [],
      "name": "baseURI",
      "outputs": [
        {
          "internalType": "string",
          "name": "",
          "type": "string"
        }
      ],
      "stateMutability": "view",
      "type": "function"
    },
    {
      "inputs": [
        {
          "internalType": "address",
          "name": "recipient",
          "type": "address"
        },
        {
          "internalType": "uint256",
          "name": "amount",
          "type": "uint256"
        },
        {
          "internalType": "uint256",
          "name": "end",
          "type": "uint256"
        }
      ],
      "name": "createLock",
      "outputs": [
        {
          "internalType": "uint256",
          "name": "xsLockID",
          "type": "uint256"
        }
      ],
      "stateMutability": "nonpayable",
      "type": "function"
    },
    {
      "inputs": [
        {
          "internalType": "uint256",
          "name": "amount",
          "type": "uint256"
        },
        {
          "internalType": "uint256",
          "name": "end",
          "type": "uint256"
        },
        {
          "internalType": "uint256",
          "name": "deadline",
          "type": "uint256"
        },
        {
          "internalType": "uint8",
          "name": "v",
          "type": "uint8"
        },
        {
          "internalType": "bytes32",
          "name": "r",
          "type": "bytes32"
        },
        {
          "internalType": "bytes32",
          "name": "s",
          "type": "bytes32"
        }
      ],
      "name": "createLockSigned",
      "outputs": [
        {
          "internalType": "uint256",
          "name": "xsLockID",
          "type": "uint256"
        }
      ],
      "stateMutability": "nonpayable",
      "type": "function"
    },
    {
      "inputs": [
        {
          "internalType": "uint256",
          "name": "tokenID",
          "type": "uint256"
        }
      ],
      "name": "exists",
      "outputs": [
        {
          "internalType": "bool",
          "name": "status",
          "type": "bool"
        }
      ],
      "stateMutability": "view",
      "type": "function"
    },
    {
      "inputs": [
        {
          "internalType": "uint256",
          "name": "xsLockID",
          "type": "uint256"
        },
        {
          "internalType": "uint256",
          "name": "end",
          "type": "uint256"
        }
      ],
      "name": "extendLock",
      "outputs": [],
      "stateMutability": "nonpayable",
      "type": "function"
    },
    {
      "inputs": [
        {
          "internalType": "uint256",
          "name": "tokenId",
          "type": "uint256"
        }
      ],
      "name": "getApproved",
      "outputs": [
        {
          "internalType": "address",
          "name": "",
          "type": "address"
        }
      ],
      "stateMutability": "view",
      "type": "function"
    },
    {
      "inputs": [],
      "name": "getXsLockListeners",
      "outputs": [
        {
          "internalType": "address[]",
          "name": "listeners_",
          "type": "address[]"
        }
      ],
      "stateMutability": "view",
      "type": "function"
    },
    {
      "inputs": [],
      "name": "governance",
      "outputs": [
        {
          "internalType": "address",
          "name": "",
          "type": "address"
        }
      ],
      "stateMutability": "view",
      "type": "function"
    },
    {
      "inputs": [],
      "name": "governanceIsLocked",
      "outputs": [
        {
          "internalType": "bool",
          "name": "",
          "type": "bool"
        }
      ],
      "stateMutability": "view",
      "type": "function"
    },
    {
      "inputs": [
        {
          "internalType": "uint256",
          "name": "xsLockID",
          "type": "uint256"
        },
        {
          "internalType": "uint256",
          "name": "amount",
          "type": "uint256"
        }
      ],
      "name": "increaseAmount",
      "outputs": [],
      "stateMutability": "nonpayable",
      "type": "function"
    },
    {
      "inputs": [
        {
          "internalType": "uint256",
          "name": "xsLockID",
          "type": "uint256"
        },
        {
          "internalType": "uint256",
          "name": "amount",
          "type": "uint256"
        },
        {
          "internalType": "uint256",
          "name": "deadline",
          "type": "uint256"
        },
        {
          "internalType": "uint8",
          "name": "v",
          "type": "uint8"
        },
        {
          "internalType": "bytes32",
          "name": "r",
          "type": "bytes32"
        },
        {
          "internalType": "bytes32",
          "name": "s",
          "type": "bytes32"
        }
      ],
      "name": "increaseAmountSigned",
      "outputs": [],
      "stateMutability": "nonpayable",
      "type": "function"
    },
    {
      "inputs": [
        {
          "internalType": "address",
          "name": "owner",
          "type": "address"
        },
        {
          "internalType": "address",
          "name": "operator",
          "type": "address"
        }
      ],
      "name": "isApprovedForAll",
      "outputs": [
        {
          "internalType": "bool",
          "name": "",
          "type": "bool"
        }
      ],
      "stateMutability": "view",
      "type": "function"
    },
    {
      "inputs": [
        {
          "internalType": "uint256",
          "name": "xsLockID",
          "type": "uint256"
        }
      ],
      "name": "isLocked",
      "outputs": [
        {
          "internalType": "bool",
          "name": "locked",
          "type": "bool"
        }
      ],
      "stateMutability": "view",
      "type": "function"
    },
    {
      "inputs": [],
      "name": "lockGovernance",
      "outputs": [],
      "stateMutability": "nonpayable",
      "type": "function"
    },
    {
      "inputs": [
        {
          "internalType": "uint256",
          "name": "xsLockID",
          "type": "uint256"
        }
      ],
      "name": "locks",
      "outputs": [
        {
          "components": [
            {
              "internalType": "uint256",
              "name": "amount",
              "type": "uint256"
            },
            {
              "internalType": "uint256",
              "name": "end",
              "type": "uint256"
            }
          ],
          "internalType": "struct Lock",
          "name": "lock_",
          "type": "tuple"
        }
      ],
      "stateMutability": "view",
      "type": "function"
    },
    {
      "inputs": [],
      "name": "name",
      "outputs": [
        {
          "internalType": "string",
          "name": "",
          "type": "string"
        }
      ],
      "stateMutability": "view",
      "type": "function"
    },
    {
      "inputs": [
        {
          "internalType": "uint256",
          "name": "tokenID",
          "type": "uint256"
        }
      ],
      "name": "nonces",
      "outputs": [
        {
          "internalType": "uint256",
          "name": "nonce",
          "type": "uint256"
        }
      ],
      "stateMutability": "view",
      "type": "function"
    },
    {
      "inputs": [
        {
          "internalType": "uint256",
          "name": "tokenId",
          "type": "uint256"
        }
      ],
      "name": "ownerOf",
      "outputs": [
        {
          "internalType": "address",
          "name": "",
          "type": "address"
        }
      ],
      "stateMutability": "view",
      "type": "function"
    },
    {
      "inputs": [],
      "name": "pendingGovernance",
      "outputs": [
        {
          "internalType": "address",
          "name": "",
          "type": "address"
        }
      ],
      "stateMutability": "view",
      "type": "function"
    },
    {
      "inputs": [
        {
          "internalType": "address",
          "name": "spender",
          "type": "address"
        },
        {
          "internalType": "uint256",
          "name": "tokenID",
          "type": "uint256"
        },
        {
          "internalType": "uint256",
          "name": "deadline",
          "type": "uint256"
        },
        {
          "internalType": "uint8",
          "name": "v",
          "type": "uint8"
        },
        {
          "internalType": "bytes32",
          "name": "r",
          "type": "bytes32"
        },
        {
          "internalType": "bytes32",
          "name": "s",
          "type": "bytes32"
        }
      ],
      "name": "permit",
      "outputs": [],
      "stateMutability": "nonpayable",
      "type": "function"
    },
    {
      "inputs": [
        {
          "internalType": "address",
          "name": "listener",
          "type": "address"
        }
      ],
      "name": "removeXsLockListener",
      "outputs": [],
      "stateMutability": "nonpayable",
      "type": "function"
    },
    {
      "inputs": [
        {
          "internalType": "address",
          "name": "to",
          "type": "address"
        },
        {
          "internalType": "uint256",
          "name": "tokenID",
          "type": "uint256"
        }
      ],
      "name": "safeTransfer",
      "outputs": [],
      "stateMutability": "nonpayable",
      "type": "function"
    },
    {
      "inputs": [
        {
          "internalType": "address",
          "name": "from",
          "type": "address"
        },
        {
          "internalType": "address",
          "name": "to",
          "type": "address"
        },
        {
          "internalType": "uint256",
          "name": "tokenId",
          "type": "uint256"
        }
      ],
      "name": "safeTransferFrom",
      "outputs": [],
      "stateMutability": "nonpayable",
      "type": "function"
    },
    {
      "inputs": [
        {
          "internalType": "address",
          "name": "from",
          "type": "address"
        },
        {
          "internalType": "address",
          "name": "to",
          "type": "address"
        },
        {
          "internalType": "uint256",
          "name": "tokenId",
          "type": "uint256"
        },
        {
          "internalType": "bytes",
          "name": "_data",
          "type": "bytes"
        }
      ],
      "name": "safeTransferFrom",
      "outputs": [],
      "stateMutability": "nonpayable",
      "type": "function"
    },
    {
      "inputs": [
        {
          "internalType": "address",
          "name": "operator",
          "type": "address"
        },
        {
          "internalType": "bool",
          "name": "approved",
          "type": "bool"
        }
      ],
      "name": "setApprovalForAll",
      "outputs": [],
      "stateMutability": "nonpayable",
      "type": "function"
    },
    {
      "inputs": [
        {
          "internalType": "string",
          "name": "baseURI_",
          "type": "string"
        }
      ],
      "name": "setBaseURI",
      "outputs": [],
      "stateMutability": "nonpayable",
      "type": "function"
    },
    {
      "inputs": [
        {
          "internalType": "address",
          "name": "pendingGovernance_",
          "type": "address"
        }
      ],
      "name": "setPendingGovernance",
      "outputs": [],
      "stateMutability": "nonpayable",
      "type": "function"
    },
    {
      "inputs": [],
      "name": "solace",
      "outputs": [
        {
          "internalType": "address",
          "name": "",
          "type": "address"
        }
      ],
      "stateMutability": "view",
      "type": "function"
    },
    {
      "inputs": [
        {
          "internalType": "address",
          "name": "account",
          "type": "address"
        }
      ],
      "name": "stakedBalance",
      "outputs": [
        {
          "internalType": "uint256",
          "name": "balance",
          "type": "uint256"
        }
      ],
      "stateMutability": "view",
      "type": "function"
    },
    {
      "inputs": [
        {
          "internalType": "bytes4",
          "name": "interfaceId",
          "type": "bytes4"
        }
      ],
      "name": "supportsInterface",
      "outputs": [
        {
          "internalType": "bool",
          "name": "",
          "type": "bool"
        }
      ],
      "stateMutability": "view",
      "type": "function"
    },
    {
      "inputs": [],
      "name": "symbol",
      "outputs": [
        {
          "internalType": "string",
          "name": "",
          "type": "string"
        }
      ],
      "stateMutability": "view",
      "type": "function"
    },
    {
      "inputs": [
        {
          "internalType": "uint256",
          "name": "xsLockID",
          "type": "uint256"
        }
      ],
      "name": "timeLeft",
      "outputs": [
        {
          "internalType": "uint256",
          "name": "time",
          "type": "uint256"
        }
      ],
      "stateMutability": "view",
      "type": "function"
    },
    {
      "inputs": [
        {
          "internalType": "uint256",
          "name": "index",
          "type": "uint256"
        }
      ],
      "name": "tokenByIndex",
      "outputs": [
        {
          "internalType": "uint256",
          "name": "",
          "type": "uint256"
        }
      ],
      "stateMutability": "view",
      "type": "function"
    },
    {
      "inputs": [
        {
          "internalType": "address",
          "name": "owner",
          "type": "address"
        },
        {
          "internalType": "uint256",
          "name": "index",
          "type": "uint256"
        }
      ],
      "name": "tokenOfOwnerByIndex",
      "outputs": [
        {
          "internalType": "uint256",
          "name": "",
          "type": "uint256"
        }
      ],
      "stateMutability": "view",
      "type": "function"
    },
    {
      "inputs": [
        {
          "internalType": "uint256",
          "name": "tokenID",
          "type": "uint256"
        }
      ],
      "name": "tokenURI",
      "outputs": [
        {
          "internalType": "string",
          "name": "",
          "type": "string"
        }
      ],
      "stateMutability": "view",
      "type": "function"
    },
    {
      "inputs": [],
      "name": "totalNumLocks",
      "outputs": [
        {
          "internalType": "uint256",
          "name": "",
          "type": "uint256"
        }
      ],
      "stateMutability": "view",
      "type": "function"
    },
    {
      "inputs": [],
      "name": "totalSupply",
      "outputs": [
        {
          "internalType": "uint256",
          "name": "",
          "type": "uint256"
        }
      ],
      "stateMutability": "view",
      "type": "function"
    },
    {
      "inputs": [
        {
          "internalType": "address",
          "name": "to",
          "type": "address"
        },
        {
          "internalType": "uint256",
          "name": "tokenID",
          "type": "uint256"
        }
      ],
      "name": "transfer",
      "outputs": [],
      "stateMutability": "nonpayable",
      "type": "function"
    },
    {
      "inputs": [
        {
          "internalType": "address",
          "name": "from",
          "type": "address"
        },
        {
          "internalType": "address",
          "name": "to",
          "type": "address"
        },
        {
          "internalType": "uint256",
          "name": "tokenId",
          "type": "uint256"
        }
      ],
      "name": "transferFrom",
      "outputs": [],
      "stateMutability": "nonpayable",
      "type": "function"
    },
    {
      "inputs": [
        {
          "internalType": "uint256",
          "name": "xsLockID",
          "type": "uint256"
        },
        {
          "internalType": "address",
          "name": "recipient",
          "type": "address"
        }
      ],
      "name": "withdraw",
      "outputs": [],
      "stateMutability": "nonpayable",
      "type": "function"
    },
    {
      "inputs": [
        {
          "internalType": "uint256",
          "name": "xsLockID",
          "type": "uint256"
        },
        {
          "internalType": "address",
          "name": "recipient",
          "type": "address"
        },
        {
          "internalType": "uint256",
          "name": "amount",
          "type": "uint256"
        }
      ],
      "name": "withdrawInPart",
      "outputs": [],
      "stateMutability": "nonpayable",
      "type": "function"
    },
    {
      "inputs": [
        {
          "internalType": "uint256[]",
          "name": "xsLockIDs",
          "type": "uint256[]"
        },
        {
          "internalType": "address",
          "name": "recipient",
          "type": "address"
        }
      ],
      "name": "withdrawMany",
      "outputs": [],
      "stateMutability": "nonpayable",
      "type": "function"
    }
  ],
  "bytecode": "0x6101406040527f137406564cdcf9b40b1700502a9241e87476728da7ae3d0edfcf0541e5b49b3e610120523480156200003757600080fd5b50604051620048e9380380620048e98339810160408190526200005a916200035b565b816040518060400160405280600c81526020016b78736f6c616365206c6f636b60a01b8152506040518060400160405280600681526020016578734c4f434b60d01b81525081604051806040016040528060018152602001603160f81b81525083838160009080519060200190620000d492919062000298565b508051620000ea90600190602084019062000298565b5050825160209384012082519284019290922060c083815260e08281524660a0818152604080517f8b73c3c69bb8fe3d512ecc4cf759cc79239f7b179b0ffacaa9a75d522b39400f818b0181905281830199909952606081019690965260808087019390935230868301528051808703909201825293850180855281519190980120905261010094909452920191829052506000918290526200019191600b919062000298565b50506001600c55506001600160a01b038116620001f55760405162461bcd60e51b815260206004820152601760248201527f7a65726f206164647265737320676f7665726e616e636500000000000000000060448201526064015b60405180910390fd5b600d80546001600160a01b0319166001600160a01b03928316179055600e80546001600160a81b03191690558116620002715760405162461bcd60e51b815260206004820152601360248201527f7a65726f206164647265737320736f6c616365000000000000000000000000006044820152606401620001ec565b600f80546001600160a01b0319166001600160a01b039290921691909117905550620003d0565b828054620002a69062000393565b90600052602060002090601f016020900481019282620002ca576000855562000315565b82601f10620002e557805160ff191683800117855562000315565b8280016001018555821562000315579182015b8281111562000315578251825591602001919060010190620002f8565b506200032392915062000327565b5090565b5b8082111562000323576000815560010162000328565b80516001600160a01b03811681146200035657600080fd5b919050565b600080604083850312156200036f57600080fd5b6200037a836200033e565b91506200038a602084016200033e565b90509250929050565b600181811c90821680620003a857607f821691505b60208210811415620003ca57634e487b7160e01b600052602260045260246000fd5b50919050565b60805160a05160c05160e05161010051610120516144c2620004276000396000818161045d015261161a01526000612b3001526000612b7f01526000612b5a01526000612ade01526000612b0701526144c26000f3fe608060405234801561001057600080fd5b506004361061032a5760003560e01c806360217267116101b2578063abcde77f116100f9578063df19578f116100a2578063f39c38a01161007c578063f39c38a0146106b9578063f4dadc61146106ca578063f6aacfb1146106ea578063fcd3fe07146106fd57600080fd5b8063df19578f14610661578063e985e9c51461066a578063f0591053146106a657600080fd5b8063b88d4fde116100d3578063b88d4fde14610628578063c87b56dd1461063b578063d61866271461064e57600080fd5b8063abcde77f146105ef578063b0d4c9a414610602578063b2383e551461061557600080fd5b80637ac2ff7b1161015b578063a22cb46511610135578063a22cb465146105c1578063a9059cbb146105d4578063abbf4b17146105e757600080fd5b80637ac2ff7b146105935780638d50b33d146105a657806395d89b41146105b957600080fd5b80636c0360eb1161018c5780636c0360eb1461056357806370a082311461056b578063719a59751461057e57600080fd5b8063602172671461052a5780636352211e1461053d578063650e15051461055057600080fd5b80632f745c591161027657806347cb7a681161021f5780634f6ccce7116101f95780634f6ccce7146104f357806355f804b3146105065780635aa6e6751461051957600080fd5b806347cb7a68146104c25780634f1bfc9e146104d55780634f558e79146104e057600080fd5b80633ef8d97e116102505780633ef8d97e14610489578063423f6cef1461049c57806342842e0e146104af57600080fd5b80632f745c591461044857806330adf81f1461045b5780633644e5151461048157600080fd5b80630abb6035116102d85780631c930221116102b25780631c9302211461041b578063238efcbc1461042d57806323b872dd1461043557600080fd5b80630abb6035146103d2578063141a468c146103e557806318160ddd1461041357600080fd5b8063070d66bf11610309578063070d66bf14610381578063081812fc14610394578063095ea7b3146103bf57600080fd5b8062f714ce1461032f57806301ffc9a71461034457806306fdde031461036c575b600080fd5b61034261033d3660046140f8565b610710565b005b61035761035236600461405c565b6107f8565b60405190151581526020015b60405180910390f35b610374610823565b60405161036391906142b2565b61034261038f366004614140565b6108b5565b6103a76103a23660046140df565b610a66565b6040516001600160a01b039091168152602001610363565b6103426103cd366004613f06565b610afb565b6103426103e0366004613dc9565b610c11565b6104056103f33660046140df565b6000908152600a602052604090205490565b604051908152602001610363565b600854610405565b600e54600160a01b900460ff16610357565b610342610cfc565b610342610443366004613e17565b610e62565b610405610456366004613f06565b610ee9565b7f0000000000000000000000000000000000000000000000000000000000000000610405565b610405610f91565b600f546103a7906001600160a01b031681565b6103426104aa366004613f06565b610fa0565b6103426104bd366004613e17565b610fbf565b6104056104d03660046140df565b610fda565b610405630784ce0081565b6103576104ee3660046140df565b611085565b6104056105013660046140df565b6110a4565b610342610514366004614096565b611148565b600d546001600160a01b03166103a7565b610405610538366004613dc9565b6111ea565b6103a761054b3660046140df565b61124c565b61040561055e366004613f30565b6112d7565b610374611361565b610405610579366004613dc9565b6113ef565b610586611489565b604051610363919061424c565b6103426105a1366004613f63565b611535565b6103426105b4366004613fbb565b611981565b610374611ab0565b6103426105cf366004613ecf565b611abf565b6103426105e2366004613f06565b611b84565b610342611b8f565b6103426105fd366004614162565b611ce9565b610342610610366004613dc9565b611e9c565b610342610623366004614140565b611f77565b610342610636366004613e53565b612092565b6103746106493660046140df565b612120565b61034261065c36600461411b565b612252565b61040560105481565b610357610678366004613de4565b6001600160a01b03918216600090815260056020908152604080832093909416825291909152205460ff1690565b6104056106b4366004614162565b612379565b600e546001600160a01b03166103a7565b6106dd6106d83660046140df565b61248f565b60405161036391906142c5565b6103576106f83660046140df565b612534565b61034261070b366004613dc9565b6125b3565b6002600c5414156107685760405162461bcd60e51b815260206004820152601f60248201527f5265656e7472616e637947756172643a207265656e7472616e742063616c6c0060448201526064015b60405180910390fd5b6002600c5581610778338261268e565b6107bd5760405162461bcd60e51b81526020600482015260166024820152751bdb9b1e481bdddb995c881bdc88185c1c1c9bdd995960521b604482015260640161075f565b6000838152601160205260409020546107d68482612785565b600f546107ed906001600160a01b031684836128e1565b50506001600c555050565b60006001600160e01b0319821663780e9d6360e01b148061081d575061081d82612959565b92915050565b60606000805461083290614396565b80601f016020809104026020016040519081016040528092919081815260200182805461085e90614396565b80156108ab5780601f10610880576101008083540402835291602001916108ab565b820191906000526020600020905b81548152906001019060200180831161088e57829003601f168201915b5050505050905090565b6002600c5414156109085760405162461bcd60e51b815260206004820152601f60248201527f5265656e7472616e637947756172643a207265656e7472616e742063616c6c00604482015260640161075f565b6002600c5581610918338261268e565b61095d5760405162461bcd60e51b81526020600482015260166024820152751bdb9b1e481bdddb995c881bdc88185c1c1c9bdd995960521b604482015260640161075f565b61096b630784ce0042614327565b8211156109ba5760405162461bcd60e51b815260206004820152601360248201527f4d6178206c6f636b206973203420796561727300000000000000000000000000604482015260640161075f565b600083815260116020526040902060010154821015610a415760405162461bcd60e51b815260206004820152602f60248201527f6e657720656e642074696d657374616d702073686f756c64206265206772656160448201527f746572207468616e206265666f72650000000000000000000000000000000000606482015260840161075f565b600083815260116020526040902054610a5c908490846129a9565b50506001600c5550565b6000818152600260205260408120546001600160a01b0316610adf5760405162461bcd60e51b815260206004820152602c60248201527f4552433732313a20617070726f76656420717565727920666f72206e6f6e657860448201526b34b9ba32b73a103a37b5b2b760a11b606482015260840161075f565b506000908152600460205260409020546001600160a01b031690565b6000610b068261124c565b9050806001600160a01b0316836001600160a01b03161415610b745760405162461bcd60e51b815260206004820152602160248201527f4552433732313a20617070726f76616c20746f2063757272656e74206f776e656044820152603960f91b606482015260840161075f565b336001600160a01b0382161480610b905750610b908133610678565b610c025760405162461bcd60e51b815260206004820152603860248201527f4552433732313a20617070726f76652063616c6c6572206973206e6f74206f7760448201527f6e6572206e6f7220617070726f76656420666f7220616c6c0000000000000000606482015260840161075f565b610c0c8383612a56565b505050565b600e54600160a01b900460ff1615610c5f5760405162461bcd60e51b815260206004820152601160248201527019dbdd995c9b985b98d9481b1bd8dad959607a1b604482015260640161075f565b600d546001600160a01b03163314610ca75760405162461bcd60e51b815260206004820152600b60248201526a21676f7665726e616e636560a81b604482015260640161075f565b600e80546001600160a01b0319166001600160a01b0383169081179091556040519081527fd61ed858909d3cb796547804c47dc1550d27455f8a0037b6b487e46212392396906020015b60405180910390a150565b600e54600160a01b900460ff1615610d4a5760405162461bcd60e51b815260206004820152601160248201527019dbdd995c9b985b98d9481b1bd8dad959607a1b604482015260640161075f565b600e546001600160a01b03163314610da45760405162461bcd60e51b815260206004820152601360248201527f2170656e64696e6720676f7665726e616e636500000000000000000000000000604482015260640161075f565b600e546001600160a01b0316610dfc5760405162461bcd60e51b815260206004820152600f60248201527f7a65726f20676f7665726e616e63650000000000000000000000000000000000604482015260640161075f565b600d8054600e80546001600160a01b038082166001600160a01b0319808616821790965594909116909155604080519190921680825260208201939093527f5f56bee8cffbe9a78652a74a60705edede02af10b0bbb888ca44b79a0d42ce809101610cf1565b610e6c338261268e565b610ede5760405162461bcd60e51b815260206004820152603160248201527f4552433732313a207472616e736665722063616c6c6572206973206e6f74206f60448201527f776e6572206e6f7220617070726f766564000000000000000000000000000000606482015260840161075f565b610c0c838383612ac4565b6000610ef4836113ef565b8210610f685760405162461bcd60e51b815260206004820152602b60248201527f455243373231456e756d657261626c653a206f776e657220696e646578206f7560448201527f74206f6620626f756e6473000000000000000000000000000000000000000000606482015260840161075f565b506001600160a01b03919091166000908152600660209081526040808320938352929052205490565b6000610f9b612ada565b905090565b610fbb33838360405180602001604052806000815250612092565b5050565b610c0c83838360405180602001604052806000815250612092565b60008181526002602052604081205482906001600160a01b03166110405760405162461bcd60e51b815260206004820152601b60248201527f717565727920666f72206e6f6e6578697374656e7420746f6b656e0000000000604482015260640161075f565b600083815260116020526040902060010154421061105f57600061107c565b60008381526011602052604090206001015461107c904290614353565b91505b50919050565b6000818152600260205260408120546001600160a01b0316151561081d565b60006110af60085490565b82106111235760405162461bcd60e51b815260206004820152602c60248201527f455243373231456e756d657261626c653a20676c6f62616c20696e646578206f60448201527f7574206f6620626f756e64730000000000000000000000000000000000000000606482015260840161075f565b600882815481106111365761113661443c565b90600052602060002001549050919050565b600e54600160a01b900460ff16156111965760405162461bcd60e51b815260206004820152601160248201527019dbdd995c9b985b98d9481b1bd8dad959607a1b604482015260640161075f565b600d546001600160a01b031633146111de5760405162461bcd60e51b815260206004820152600b60248201526a21676f7665726e616e636560a81b604482015260640161075f565b6111e781612bcd565b50565b6000806111f6836113ef565b90506000915060005b818110156112455760006112138583610ee9565b60008181526011602052604090205490915061122f9085614327565b935050808061123d906143cb565b9150506111ff565b5050919050565b6000818152600260205260408120546001600160a01b03168061081d5760405162461bcd60e51b815260206004820152602960248201527f4552433732313a206f776e657220717565727920666f72206e6f6e657869737460448201527f656e7420746f6b656e0000000000000000000000000000000000000000000000606482015260840161075f565b60006002600c54141561132c5760405162461bcd60e51b815260206004820152601f60248201527f5265656e7472616e637947756172643a207265656e7472616e742063616c6c00604482015260640161075f565b6002600c55600f54611349906001600160a01b0316333086612c10565b611354848484612c48565b6001600c55949350505050565b600b805461136e90614396565b80601f016020809104026020016040519081016040528092919081815260200182805461139a90614396565b80156113e75780601f106113bc576101008083540402835291602001916113e7565b820191906000526020600020905b8154815290600101906020018083116113ca57829003601f168201915b505050505081565b60006001600160a01b03821661146d5760405162461bcd60e51b815260206004820152602a60248201527f4552433732313a2062616c616e636520717565727920666f7220746865207a6560448201527f726f206164647265737300000000000000000000000000000000000000000000606482015260840161075f565b506001600160a01b031660009081526003602052604090205490565b606060006114976012612d3a565b90508067ffffffffffffffff8111156114b2576114b2614452565b6040519080825280602002602001820160405280156114db578160200160208202803683370190505b50915060005b81811015611530576114f4601282612d44565b8382815181106115065761150661443c565b6001600160a01b039092166020928302919091019091015280611528816143cb565b9150506114e1565b505090565b6000858152600260205260409020546001600160a01b03166115995760405162461bcd60e51b815260206004820152601b60248201527f717565727920666f72206e6f6e6578697374656e7420746f6b656e0000000000604482015260640161075f565b834211156115e95760405162461bcd60e51b815260206004820152600e60248201527f7065726d69742065787069726564000000000000000000000000000000000000604482015260640161075f565b6000858152600a6020526040812080549082611604836143cb565b9190505590506000611614610f91565b604080517f000000000000000000000000000000000000000000000000000000000000000060208201526001600160a01b038b1691810191909152606081018990526080810184905260a0810188905260c001604051602081830303815290604052805190602001206040516020016116a492919061190160f01b81526002810192909252602282015260420190565b60405160208183030381529060405280519060200120905060006116c78861124c565b9050806001600160a01b0316896001600160a01b0316141561172b5760405162461bcd60e51b815260206004820152601560248201527f63616e6e6f74207065726d697420746f2073656c660000000000000000000000604482015260640161075f565b803b1561186357604080516020810187905280820186905260f888901b7fff00000000000000000000000000000000000000000000000000000000000000166060820152815160418183030181526061820192839052630b135d3f60e11b9092526001600160a01b03831691631626ba7e916117ab918691606501614299565b60206040518083038186803b1580156117c357600080fd5b505afa1580156117d7573d6000803e3d6000fd5b505050506040513d601f19601f820116820180604052508101906117fb9190614079565b7bffffffffffffffffffffffffffffffffffffffffffffffffffffffff1916631626ba7e60e01b1461185e5760405162461bcd60e51b815260206004820152600c60248201526b1d5b985d5d1a1bdc9a5e995960a21b604482015260640161075f565b61196c565b6040805160008082526020820180845285905260ff891692820192909252606081018790526080810186905260019060a0016020604051602081039080840390855afa1580156118b7573d6000803e3d6000fd5b5050604051601f1901519150506001600160a01b03811661191a5760405162461bcd60e51b815260206004820152601160248201527f696e76616c6964207369676e6174757265000000000000000000000000000000604482015260640161075f565b816001600160a01b0316816001600160a01b03161461196a5760405162461bcd60e51b815260206004820152600c60248201526b1d5b985d5d1a1bdc9a5e995960a21b604482015260640161075f565b505b6119768989612a56565b505050505050505050565b6002600c5414156119d45760405162461bcd60e51b815260206004820152601f60248201527f5265656e7472616e637947756172643a207265656e7472616e742063616c6c00604482015260640161075f565b6002600c55816000805b82811015611a8c5760008686838181106119fa576119fa61443c565b905060200201359050611a0d338261268e565b611a525760405162461bcd60e51b81526020600482015260166024820152751bdb9b1e481bdddb995c881bdc88185c1c1c9bdd995960521b604482015260640161075f565b600081815260116020526040902054611a6b8185614327565b9350611a778282612785565b50508080611a84906143cb565b9150506119de565b50600f54611aa4906001600160a01b031684836128e1565b50506001600c55505050565b60606001805461083290614396565b6001600160a01b038216331415611b185760405162461bcd60e51b815260206004820152601960248201527f4552433732313a20617070726f766520746f2063616c6c657200000000000000604482015260640161075f565b3360008181526005602090815260408083206001600160a01b03871680855290835292819020805460ff191686151590811790915590519081529192917f17307eab39ab6107e8899845ad3d59bd9653f200f220920489ca2b5937696c31910160405180910390a35050565b610fbb338383610e62565b600e54600160a01b900460ff1615611bdd5760405162461bcd60e51b815260206004820152601160248201527019dbdd995c9b985b98d9481b1bd8dad959607a1b604482015260640161075f565b600d546001600160a01b03163314611c255760405162461bcd60e51b815260206004820152600b60248201526a21676f7665726e616e636560a81b604482015260640161075f565b600e8054600d80546001600160a01b036001600160a01b031990911681179091557fffffffffffffffffffffff0000000000000000000000000000000000000000009091167401ffffffffffffffffffffffffffffffffffffffff179091556040805133815260208101929092527f5f56bee8cffbe9a78652a74a60705edede02af10b0bbb888ca44b79a0d42ce80910160405180910390a16040517fd572292b9e5d684b0719ae2d0e210513b477e303c975ed1c63b6fcac1607672790600090a1565b6002600c541415611d3c5760405162461bcd60e51b815260206004820152601f60248201527f5265656e7472616e637947756172643a207265656e7472616e742063616c6c00604482015260640161075f565b6002600c5585611d63816000908152600260205260409020546001600160a01b0316151590565b611daf5760405162461bcd60e51b815260206004820152601b60248201527f717565727920666f72206e6f6e6578697374656e7420746f6b656e0000000000604482015260640161075f565b600f5460405163d505accf60e01b8152336004820152306024820152604481018890526064810187905260ff8616608482015260a4810185905260c481018490526001600160a01b039091169063d505accf9060e401600060405180830381600087803b158015611e1f57600080fd5b505af1158015611e33573d6000803e3d6000fd5b5050600f54611e5092506001600160a01b03169050333089612c10565b600087815260116020526040812054611e6a908890614327565b9050611e8d8882601160008c8152602001908152602001600020600101546129a9565b50506001600c55505050505050565b600e54600160a01b900460ff1615611eea5760405162461bcd60e51b815260206004820152601160248201527019dbdd995c9b985b98d9481b1bd8dad959607a1b604482015260640161075f565b600d546001600160a01b03163314611f325760405162461bcd60e51b815260206004820152600b60248201526a21676f7665726e616e636560a81b604482015260640161075f565b611f3d601282612d57565b506040516001600160a01b03821681527f7225315bb5c525892679876f6b48a3a4fd28294d637607a8cf23f62b372051e590602001610cf1565b6002600c541415611fca5760405162461bcd60e51b815260206004820152601f60248201527f5265656e7472616e637947756172643a207265656e7472616e742063616c6c00604482015260640161075f565b6002600c5581611ff1816000908152600260205260409020546001600160a01b0316151590565b61203d5760405162461bcd60e51b815260206004820152601b60248201527f717565727920666f72206e6f6e6578697374656e7420746f6b656e0000000000604482015260640161075f565b600f54612055906001600160a01b0316333085612c10565b60008381526011602052604081205461206f908490614327565b90506107ed848260116000888152602001908152602001600020600101546129a9565b61209c338361268e565b61210e5760405162461bcd60e51b815260206004820152603160248201527f4552433732313a207472616e736665722063616c6c6572206973206e6f74206f60448201527f776e6572206e6f7220617070726f766564000000000000000000000000000000606482015260840161075f565b61211a84848484612d6c565b50505050565b606081612144816000908152600260205260409020546001600160a01b0316151590565b6121905760405162461bcd60e51b815260206004820152601b60248201527f717565727920666f72206e6f6e6578697374656e7420746f6b656e0000000000604482015260640161075f565b6000600b805461219f90614396565b80601f01602080910402602001604051908101604052809291908181526020018280546121cb90614396565b80156122185780601f106121ed57610100808354040283529160200191612218565b820191906000526020600020905b8154815290600101906020018083116121fb57829003601f168201915b505050505090508061222985612dea565b60405160200161223a9291906141e1565b60405160208183030381529060405292505050919050565b6002600c5414156122a55760405162461bcd60e51b815260206004820152601f60248201527f5265656e7472616e637947756172643a207265656e7472616e742063616c6c00604482015260640161075f565b6002600c55826122b5338261268e565b6122fa5760405162461bcd60e51b81526020600482015260166024820152751bdb9b1e481bdddb995c881bdc88185c1c1c9bdd995960521b604482015260640161075f565b6000848152601160205260409020548211156123585760405162461bcd60e51b815260206004820152600f60248201527f6578636573732077697468647261770000000000000000000000000000000000604482015260640161075f565b6123628483612785565b600f546107ed906001600160a01b031684846128e1565b60006002600c5414156123ce5760405162461bcd60e51b815260206004820152601f60248201527f5265656e7472616e637947756172643a207265656e7472616e742063616c6c00604482015260640161075f565b6002600c55600f5460405163d505accf60e01b8152336004820152306024820152604481018990526064810187905260ff8616608482015260a4810185905260c481018490526001600160a01b039091169063d505accf9060e401600060405180830381600087803b15801561244357600080fd5b505af1158015612457573d6000803e3d6000fd5b5050600f5461247492506001600160a01b0316905033308a612c10565b61247f338888612c48565b6001600c55979650505050505050565b604080518082019091526000808252602082015260008281526002602052604090205482906001600160a01b03166125095760405162461bcd60e51b815260206004820152601b60248201527f717565727920666f72206e6f6e6578697374656e7420746f6b656e0000000000604482015260640161075f565b5050600090815260116020908152604091829020825180840190935280548352600101549082015290565b60008181526002602052604081205482906001600160a01b031661259a5760405162461bcd60e51b815260206004820152601b60248201527f717565727920666f72206e6f6e6578697374656e7420746f6b656e0000000000604482015260640161075f565b5050600090815260116020526040902060010154421090565b600e54600160a01b900460ff16156126015760405162461bcd60e51b815260206004820152601160248201527019dbdd995c9b985b98d9481b1bd8dad959607a1b604482015260640161075f565b600d546001600160a01b031633146126495760405162461bcd60e51b815260206004820152600b60248201526a21676f7665726e616e636560a81b604482015260640161075f565b612654601282612f00565b506040516001600160a01b03821681527ffd724879dc1d8ebf9fb54b059c1745e8a5883d242f763594d2bba7b438ccbfe390602001610cf1565b6000818152600260205260408120546001600160a01b03166127075760405162461bcd60e51b815260206004820152602c60248201527f4552433732313a206f70657261746f7220717565727920666f72206e6f6e657860448201526b34b9ba32b73a103a37b5b2b760a11b606482015260840161075f565b60006127128361124c565b9050806001600160a01b0316846001600160a01b0316148061274d5750836001600160a01b031661274284610a66565b6001600160a01b0316145b8061277d57506001600160a01b0380821660009081526005602090815260408083209388168352929052205460ff165b949350505050565b6000828152601160205260409020600101544210156127cf5760405162461bcd60e51b81526020600482015260066024820152651b1bd8dad95960d21b604482015260640161075f565b600082815260116020526040902054811415612808576127ee82612f15565b6000828152601160205260408120818155600101556128a4565b600082815260116020908152604080832081518083018352815481526001909101549281019290925280518082019091528151919291819061284b908690614353565b815260200183602001518152509050826011600086815260200190815260200160002060000160008282546128809190614353565b90915550600090506128918561124c565b90506128a08582838686612f37565b5050505b60408051838152602081018390527f8c90f1854273170c1e829c713d0989ed4dcfedc62f89a508607eb1b002d3f64c910160405180910390a15050565b6040516001600160a01b038316602482015260448101829052610c0c90849063a9059cbb60e01b906064015b60408051601f198184030181529190526020810180517bffffffffffffffffffffffffffffffffffffffffffffffffffffffff166001600160e01b031990931692909217909152612fdc565b60006001600160e01b031982166380ac58cd60e01b148061298a57506001600160e01b03198216635b5e139f60e01b145b8061081d57506301ffc9a760e01b6001600160e01b031983161461081d565b600083815260116020818152604080842081518083018352815481526001820180548286015283518085019094528884528385018881528a8852959094528251909155925190915590916129fc8661124c565b9050612a0b8682838686612f37565b602080830151604080518981529283018890528201527f067e2f70e7e1385380aeba8b936c35350c777e1243ec52626e253060ead700c29060600160405180910390a1505050505050565b600081815260046020526040902080546001600160a01b0319166001600160a01b0384169081179091558190612a8b8261124c565b6001600160a01b03167f8c5be1e5ebec7d5bd14f71427d1e84f3dd0314c0f7b2291e5b200ac8c7c3b92560405160405180910390a45050565b612acf8383836130c1565b610c0c838383613280565b60007f0000000000000000000000000000000000000000000000000000000000000000461415612b2957507f000000000000000000000000000000000000000000000000000000000000000090565b50604080517f00000000000000000000000000000000000000000000000000000000000000006020808301919091527f0000000000000000000000000000000000000000000000000000000000000000828401527f000000000000000000000000000000000000000000000000000000000000000060608301524660808301523060a0808401919091528351808403909101815260c0909201909252805191012090565b8051612be090600b906020840190613c8d565b507ff9c7803e94e0d3c02900d8a90893a6d5e90dd04d32a4cfe825520f82bf9f32f681604051610cf191906142b2565b6040516001600160a01b038085166024830152831660448201526064810182905261211a9085906323b872dd60e01b9060840161290d565b6000601060008154612c59906143cb565b91829055506040805180820190915284815260208101849052909150612c83630784ce0042614327565b81602001511115612cd65760405162461bcd60e51b815260206004820152601360248201527f4d6178206c6f636b206973203420796561727300000000000000000000000000604482015260640161075f565b60008281526011602090815260409091208251815590820151600190910155612cff8583613357565b6040518281527ff5c3a5bb1319c895b2a31add0dbddb093066a7a052f45fd86c020ee3658b69d09060200160405180910390a1509392505050565b600061081d825490565b6000612d508383613371565b9392505050565b6000612d50836001600160a01b03841661339b565b612d77848484612ac4565b612d83848484846133ea565b61211a5760405162461bcd60e51b815260206004820152603260248201527f4552433732313a207472616e7366657220746f206e6f6e20455243373231526560448201527131b2b4bb32b91034b6b83632b6b2b73a32b960711b606482015260840161075f565b606081612e0e5750506040805180820190915260018152600360fc1b602082015290565b8160005b8115612e385780612e22816143cb565b9150612e319050600a8361433f565b9150612e12565b60008167ffffffffffffffff811115612e5357612e53614452565b6040519080825280601f01601f191660200182016040528015612e7d576020820181803683370190505b5090505b841561277d57612e92600183614353565b9150612e9f600a866143e6565b612eaa906030614327565b60f81b818381518110612ebf57612ebf61443c565b60200101907effffffffffffffffffffffffffffffffffffffffffffffffffffffffffffff1916908160001a905350612ef9600a8661433f565b9450612e81565b6000612d50836001600160a01b038416613542565b6000612f208261124c565b9050612f2b82613635565b610fbb81600084613280565b6000612f436012612d3a565b905060005b81811015612fd357612f5b601282612d44565b6001600160a01b031663d517b34b88888888886040518663ffffffff1660e01b8152600401612f8e9594939291906142dc565b600060405180830381600087803b158015612fa857600080fd5b505af1158015612fbc573d6000803e3d6000fd5b505050508080612fcb906143cb565b915050612f48565b50505050505050565b6000613031826040518060400160405280602081526020017f5361666545524332303a206c6f772d6c6576656c2063616c6c206661696c6564815250856001600160a01b03166136dc9092919063ffffffff16565b805190915015610c0c578080602001905181019061304f919061403f565b610c0c5760405162461bcd60e51b815260206004820152602a60248201527f5361666545524332303a204552433230206f7065726174696f6e20646964206e60448201527f6f74207375636365656400000000000000000000000000000000000000000000606482015260840161075f565b826001600160a01b03166130d48261124c565b6001600160a01b0316146131505760405162461bcd60e51b815260206004820152602960248201527f4552433732313a207472616e73666572206f6620746f6b656e2074686174206960448201527f73206e6f74206f776e0000000000000000000000000000000000000000000000606482015260840161075f565b6001600160a01b0382166131b25760405162461bcd60e51b8152602060048201526024808201527f4552433732313a207472616e7366657220746f20746865207a65726f206164646044820152637265737360e01b606482015260840161075f565b6131bd8383836136eb565b6131c8600082612a56565b6001600160a01b03831660009081526003602052604081208054600192906131f1908490614353565b90915550506001600160a01b038216600090815260036020526040812080546001929061321f908490614327565b909155505060008181526002602052604080822080546001600160a01b0319166001600160a01b0386811691821790925591518493918716917fddf252ad1be2c89b69c2b068fc378daa952ba7f163c4a11628f55a4df523b3ef91a4505050565b60008181526011602090815260409182902082518084019093528054835260010154908201526001600160a01b0384166132dc576132d7828585604051806040016040528060008152602001600081525085612f37565b61211a565b6001600160a01b03831661330d576132d7828585846040518060400160405280600081526020016000815250612f37565b428160200151111561334a5760405162461bcd60e51b81526020600482015260066024820152651b1bd8dad95960d21b604482015260640161075f565b61211a8285858485612f37565b610fbb8282604051806020016040528060008152506137a3565b60008260000182815481106133885761338861443c565b9060005260206000200154905092915050565b60008181526001830160205260408120546133e25750815460018181018455600084815260208082209093018490558454848252828601909352604090209190915561081d565b50600061081d565b60006001600160a01b0384163b1561353757604051630a85bd0160e11b81526001600160a01b0385169063150b7a029061342e903390899088908890600401614210565b602060405180830381600087803b15801561344857600080fd5b505af1925050508015613478575060408051601f3d908101601f1916820190925261347591810190614079565b60015b61351d573d8080156134a6576040519150601f19603f3d011682016040523d82523d6000602084013e6134ab565b606091505b5080516135155760405162461bcd60e51b815260206004820152603260248201527f4552433732313a207472616e7366657220746f206e6f6e20455243373231526560448201527131b2b4bb32b91034b6b83632b6b2b73a32b960711b606482015260840161075f565b805181602001fd5b6001600160e01b031916630a85bd0160e11b14905061277d565b506001949350505050565b6000818152600183016020526040812054801561362b576000613566600183614353565b855490915060009061357a90600190614353565b90508181146135df57600086600001828154811061359a5761359a61443c565b90600052602060002001549050808760000184815481106135bd576135bd61443c565b6000918252602080832090910192909255918252600188019052604090208390555b85548690806135f0576135f0614426565b60019003818190600052602060002001600090559055856001016000868152602001908152602001600020600090556001935050505061081d565b600091505061081d565b60006136408261124c565b905061364e816000846136eb565b613659600083612a56565b6001600160a01b0381166000908152600360205260408120805460019290613682908490614353565b909155505060008281526002602052604080822080546001600160a01b0319169055518391906001600160a01b038416907fddf252ad1be2c89b69c2b068fc378daa952ba7f163c4a11628f55a4df523b3ef908390a45050565b606061277d8484600085613821565b6001600160a01b0383166137465761374181600880546000838152600960205260408120829055600182018355919091527ff3f7a9fe364faab93b216da50a3214154f22a0a2b415b23a84c8169e8b636ee30155565b613769565b816001600160a01b0316836001600160a01b031614613769576137698382613960565b6001600160a01b03821661378057610c0c816139fd565b826001600160a01b0316826001600160a01b031614610c0c57610c0c8282613aac565b6137ad8383613af0565b6137ba60008484846133ea565b610c0c5760405162461bcd60e51b815260206004820152603260248201527f4552433732313a207472616e7366657220746f206e6f6e20455243373231526560448201527131b2b4bb32b91034b6b83632b6b2b73a32b960711b606482015260840161075f565b6060824710156138995760405162461bcd60e51b815260206004820152602660248201527f416464726573733a20696e73756666696369656e742062616c616e636520666f60448201527f722063616c6c0000000000000000000000000000000000000000000000000000606482015260840161075f565b843b6138e75760405162461bcd60e51b815260206004820152601d60248201527f416464726573733a2063616c6c20746f206e6f6e2d636f6e7472616374000000604482015260640161075f565b600080866001600160a01b0316858760405161390391906141c5565b60006040518083038185875af1925050503d8060008114613940576040519150601f19603f3d011682016040523d82523d6000602084013e613945565b606091505b5091509150613955828286613b06565b979650505050505050565b6000600161396d846113ef565b6139779190614353565b6000838152600760205260409020549091508082146139ca576001600160a01b03841660009081526006602090815260408083208584528252808320548484528184208190558352600790915290208190555b5060009182526007602090815260408084208490556001600160a01b039094168352600681528383209183525290812055565b600854600090613a0f90600190614353565b60008381526009602052604081205460088054939450909284908110613a3757613a3761443c565b906000526020600020015490508060088381548110613a5857613a5861443c565b6000918252602080832090910192909255828152600990915260408082208490558582528120556008805480613a9057613a90614426565b6001900381819060005260206000200160009055905550505050565b6000613ab7836113ef565b6001600160a01b039093166000908152600660209081526040808320868452825280832085905593825260079052919091209190915550565b613afa8282613b3f565b610fbb60008383613280565b60608315613b15575081612d50565b825115613b255782518084602001fd5b8160405162461bcd60e51b815260040161075f91906142b2565b6001600160a01b038216613b955760405162461bcd60e51b815260206004820181905260248201527f4552433732313a206d696e7420746f20746865207a65726f2061646472657373604482015260640161075f565b6000818152600260205260409020546001600160a01b031615613bfa5760405162461bcd60e51b815260206004820152601c60248201527f4552433732313a20746f6b656e20616c7265616479206d696e74656400000000604482015260640161075f565b613c06600083836136eb565b6001600160a01b0382166000908152600360205260408120805460019290613c2f908490614327565b909155505060008181526002602052604080822080546001600160a01b0319166001600160a01b03861690811790915590518392907fddf252ad1be2c89b69c2b068fc378daa952ba7f163c4a11628f55a4df523b3ef908290a45050565b828054613c9990614396565b90600052602060002090601f016020900481019282613cbb5760008555613d01565b82601f10613cd457805160ff1916838001178555613d01565b82800160010185558215613d01579182015b82811115613d01578251825591602001919060010190613ce6565b50613d0d929150613d11565b5090565b5b80821115613d0d5760008155600101613d12565b600067ffffffffffffffff80841115613d4157613d41614452565b604051601f8501601f19908116603f01168101908282118183101715613d6957613d69614452565b81604052809350858152868686011115613d8257600080fd5b858560208301376000602087830101525050509392505050565b80356001600160a01b0381168114613db357600080fd5b919050565b803560ff81168114613db357600080fd5b600060208284031215613ddb57600080fd5b612d5082613d9c565b60008060408385031215613df757600080fd5b613e0083613d9c565b9150613e0e60208401613d9c565b90509250929050565b600080600060608486031215613e2c57600080fd5b613e3584613d9c565b9250613e4360208501613d9c565b9150604084013590509250925092565b60008060008060808587031215613e6957600080fd5b613e7285613d9c565b9350613e8060208601613d9c565b925060408501359150606085013567ffffffffffffffff811115613ea357600080fd5b8501601f81018713613eb457600080fd5b613ec387823560208401613d26565b91505092959194509250565b60008060408385031215613ee257600080fd5b613eeb83613d9c565b91506020830135613efb81614468565b809150509250929050565b60008060408385031215613f1957600080fd5b613f2283613d9c565b946020939093013593505050565b600080600060608486031215613f4557600080fd5b613f4e84613d9c565b95602085013595506040909401359392505050565b60008060008060008060c08789031215613f7c57600080fd5b613f8587613d9c565b95506020870135945060408701359350613fa160608801613db8565b92506080870135915060a087013590509295509295509295565b600080600060408486031215613fd057600080fd5b833567ffffffffffffffff80821115613fe857600080fd5b818601915086601f830112613ffc57600080fd5b81358181111561400b57600080fd5b8760208260051b850101111561402057600080fd5b6020928301955093506140369186019050613d9c565b90509250925092565b60006020828403121561405157600080fd5b8151612d5081614468565b60006020828403121561406e57600080fd5b8135612d5081614476565b60006020828403121561408b57600080fd5b8151612d5081614476565b6000602082840312156140a857600080fd5b813567ffffffffffffffff8111156140bf57600080fd5b8201601f810184136140d057600080fd5b61277d84823560208401613d26565b6000602082840312156140f157600080fd5b5035919050565b6000806040838503121561410b57600080fd5b82359150613e0e60208401613d9c565b60008060006060848603121561413057600080fd5b83359250613e4360208501613d9c565b6000806040838503121561415357600080fd5b50508035926020909101359150565b60008060008060008060c0878903121561417b57600080fd5b863595506020870135945060408701359350613fa160608801613db8565b600081518084526141b181602086016020860161436a565b601f01601f19169290920160200192915050565b600082516141d781846020870161436a565b9190910192915050565b600083516141f381846020880161436a565b83519083019061420781836020880161436a565b01949350505050565b60006001600160a01b038087168352808616602084015250836040830152608060608301526142426080830184614199565b9695505050505050565b6020808252825182820181905260009190848201906040850190845b8181101561428d5783516001600160a01b031683529284019291840191600101614268565b50909695505050505050565b82815260406020820152600061277d6040830184614199565b602081526000612d506020830184614199565b81518152602080830151908201526040810161081d565b8581526001600160a01b0385811660208301528416604082015260e08101614311606083018580518252602090810151910152565b825160a0830152602083015160c0830152614242565b6000821982111561433a5761433a6143fa565b500190565b60008261434e5761434e614410565b500490565b600082821015614365576143656143fa565b500390565b60005b8381101561438557818101518382015260200161436d565b8381111561211a5750506000910152565b600181811c908216806143aa57607f821691505b6020821081141561107f57634e487b7160e01b600052602260045260246000fd5b60006000198214156143df576143df6143fa565b5060010190565b6000826143f5576143f5614410565b500690565b634e487b7160e01b600052601160045260246000fd5b634e487b7160e01b600052601260045260246000fd5b634e487b7160e01b600052603160045260246000fd5b634e487b7160e01b600052603260045260246000fd5b634e487b7160e01b600052604160045260246000fd5b80151581146111e757600080fd5b6001600160e01b0319811681146111e757600080fdfea26469706673582212206bda66a35bc17c7694c2b32309ea2215b8d56743346a5d8a71190bd3ca42597264736f6c63430008060033",
  "linkReferences": {},
  "deployedLinkReferences": {}
}