{
  "_format": "hh-sol-artifact-1",
  "contractName": "xSOLACE",
  "sourceName": "contracts/xSOLACE.sol",
  "abi": [
    {
      "inputs": [
        {
          "internalType": "address",
          "name": "governance_",
          "type": "address"
        },
        {
          "internalType": "address",
          "name": "solace_",
          "type": "address"
        },
        {
          "internalType": "uint256",
          "name": "startTime_",
          "type": "uint256"
        },
        {
          "internalType": "uint256",
          "name": "endTime_",
          "type": "uint256"
        }
      ],
      "stateMutability": "nonpayable",
      "type": "constructor"
    },
    {
      "anonymous": false,
      "inputs": [
        {
          "indexed": true,
          "internalType": "address",
          "name": "user",
          "type": "address"
        }
      ],
      "name": "Compounded",
      "type": "event"
    },
    {
      "anonymous": false,
      "inputs": [
        {
          "indexed": true,
          "internalType": "address",
          "name": "user",
          "type": "address"
        },
        {
          "indexed": false,
          "internalType": "uint256",
          "name": "amount",
          "type": "uint256"
        }
      ],
      "name": "Deposited",
      "type": "event"
    },
    {
      "anonymous": false,
      "inputs": [
        {
          "indexed": false,
          "internalType": "uint256",
          "name": "endTime",
          "type": "uint256"
        }
      ],
      "name": "FarmEndSet",
      "type": "event"
    },
    {
      "anonymous": false,
      "inputs": [],
      "name": "GovernanceLocked",
      "type": "event"
    },
    {
      "anonymous": false,
      "inputs": [
        {
          "indexed": false,
          "internalType": "address",
          "name": "pendingGovernance",
          "type": "address"
        }
      ],
      "name": "GovernancePending",
      "type": "event"
    },
    {
      "anonymous": false,
      "inputs": [
        {
          "indexed": false,
          "internalType": "address",
          "name": "oldGovernance",
          "type": "address"
        },
        {
          "indexed": false,
          "internalType": "address",
          "name": "newGovernance",
          "type": "address"
        }
      ],
      "name": "GovernanceTransferred",
      "type": "event"
    },
    {
      "anonymous": false,
      "inputs": [
        {
          "indexed": true,
          "internalType": "address",
          "name": "user",
          "type": "address"
        }
      ],
      "name": "Harvested",
      "type": "event"
    },
    {
      "anonymous": false,
      "inputs": [
        {
          "indexed": true,
          "internalType": "address",
          "name": "user",
          "type": "address"
        },
        {
          "indexed": false,
          "internalType": "uint256",
          "name": "lockExpiry",
          "type": "uint256"
        }
      ],
      "name": "Locked",
      "type": "event"
    },
    {
      "anonymous": false,
      "inputs": [
        {
          "indexed": false,
          "internalType": "uint256",
          "name": "rewardPerSecond",
          "type": "uint256"
        }
      ],
      "name": "RewardsSet",
      "type": "event"
    },
    {
      "anonymous": false,
      "inputs": [],
      "name": "Updated",
      "type": "event"
    },
    {
      "anonymous": false,
      "inputs": [
        {
          "indexed": true,
          "internalType": "address",
          "name": "user",
          "type": "address"
        },
        {
          "indexed": false,
          "internalType": "uint256",
          "name": "amount",
          "type": "uint256"
        }
      ],
      "name": "Withdrawn",
      "type": "event"
    },
    {
      "inputs": [],
      "name": "MAX_BPS",
      "outputs": [
        {
          "internalType": "uint256",
          "name": "",
          "type": "uint256"
        }
      ],
      "stateMutability": "view",
      "type": "function"
    },
    {
      "inputs": [],
      "name": "MAX_LOCK_DURATION",
      "outputs": [
        {
          "internalType": "uint256",
          "name": "",
          "type": "uint256"
        }
      ],
      "stateMutability": "view",
      "type": "function"
    },
    {
      "inputs": [],
      "name": "MAX_LOCK_MULTIPLIER_BPS",
      "outputs": [
        {
          "internalType": "uint256",
          "name": "",
          "type": "uint256"
        }
      ],
      "stateMutability": "view",
      "type": "function"
    },
    {
      "inputs": [],
      "name": "MIN_LOCK_DURATION",
      "outputs": [
        {
          "internalType": "uint256",
          "name": "",
          "type": "uint256"
        }
      ],
      "stateMutability": "view",
      "type": "function"
    },
    {
      "inputs": [],
      "name": "accRewardPerShare",
      "outputs": [
        {
          "internalType": "uint256",
          "name": "",
          "type": "uint256"
        }
      ],
      "stateMutability": "view",
      "type": "function"
    },
    {
      "inputs": [],
      "name": "acceptGovernance",
      "outputs": [],
      "stateMutability": "nonpayable",
      "type": "function"
    },
    {
      "inputs": [
        {
          "internalType": "address",
          "name": "user",
          "type": "address"
        }
      ],
      "name": "balanceOf",
      "outputs": [
        {
          "internalType": "uint256",
          "name": "amount",
          "type": "uint256"
        }
      ],
      "stateMutability": "view",
      "type": "function"
    },
    {
      "inputs": [
        {
          "internalType": "uint256",
          "name": "amount",
          "type": "uint256"
        }
      ],
      "name": "deposit",
      "outputs": [],
      "stateMutability": "nonpayable",
      "type": "function"
    },
    {
      "inputs": [
        {
          "internalType": "uint256",
          "name": "amount",
          "type": "uint256"
        },
        {
          "internalType": "uint256",
          "name": "duration",
          "type": "uint256"
        }
      ],
      "name": "depositAndLock",
      "outputs": [],
      "stateMutability": "nonpayable",
      "type": "function"
    },
    {
      "inputs": [
        {
          "internalType": "address",
          "name": "depositor",
          "type": "address"
        },
        {
          "internalType": "uint256",
          "name": "amount",
          "type": "uint256"
        },
        {
          "internalType": "uint256",
          "name": "deadline",
          "type": "uint256"
        },
        {
          "internalType": "uint8",
          "name": "v",
          "type": "uint8"
        },
        {
          "internalType": "bytes32",
          "name": "r",
          "type": "bytes32"
        },
        {
          "internalType": "bytes32",
          "name": "s",
          "type": "bytes32"
        },
        {
          "internalType": "uint256",
          "name": "duration",
          "type": "uint256"
        }
      ],
      "name": "depositAndLockSigned",
      "outputs": [],
      "stateMutability": "nonpayable",
      "type": "function"
    },
    {
      "inputs": [
        {
          "internalType": "address",
          "name": "receiver",
          "type": "address"
        },
        {
          "internalType": "uint256",
          "name": "amount",
          "type": "uint256"
        }
      ],
      "name": "depositFor",
      "outputs": [],
      "stateMutability": "nonpayable",
      "type": "function"
    },
    {
      "inputs": [
        {
          "internalType": "address",
          "name": "depositor",
          "type": "address"
        },
        {
          "internalType": "uint256",
          "name": "amount",
          "type": "uint256"
        },
        {
          "internalType": "uint256",
          "name": "deadline",
          "type": "uint256"
        },
        {
          "internalType": "uint8",
          "name": "v",
          "type": "uint8"
        },
        {
          "internalType": "bytes32",
          "name": "r",
          "type": "bytes32"
        },
        {
          "internalType": "bytes32",
          "name": "s",
          "type": "bytes32"
        }
      ],
      "name": "depositSigned",
      "outputs": [],
      "stateMutability": "nonpayable",
      "type": "function"
    },
    {
      "inputs": [],
      "name": "endTime",
      "outputs": [
        {
          "internalType": "uint256",
          "name": "",
          "type": "uint256"
        }
      ],
      "stateMutability": "view",
      "type": "function"
    },
    {
      "inputs": [
        {
          "internalType": "uint256",
          "name": "from",
          "type": "uint256"
        },
        {
          "internalType": "uint256",
          "name": "to",
          "type": "uint256"
        }
      ],
      "name": "getRewardAmountDistributed",
      "outputs": [
        {
          "internalType": "uint256",
          "name": "amount",
          "type": "uint256"
        }
      ],
      "stateMutability": "view",
      "type": "function"
    },
    {
      "inputs": [],
      "name": "governance",
      "outputs": [
        {
          "internalType": "address",
          "name": "",
          "type": "address"
        }
      ],
      "stateMutability": "view",
      "type": "function"
    },
    {
      "inputs": [],
      "name": "governanceIsLocked",
      "outputs": [
        {
          "internalType": "bool",
          "name": "",
          "type": "bool"
        }
      ],
      "stateMutability": "view",
      "type": "function"
    },
    {
      "inputs": [
        {
          "internalType": "address",
          "name": "user",
          "type": "address"
        }
      ],
      "name": "harvest",
      "outputs": [],
      "stateMutability": "nonpayable",
      "type": "function"
    },
    {
      "inputs": [
        {
          "internalType": "address",
          "name": "user",
          "type": "address"
        }
      ],
      "name": "isLocked",
      "outputs": [
        {
          "internalType": "bool",
          "name": "locked",
          "type": "bool"
        }
      ],
      "stateMutability": "view",
      "type": "function"
    },
    {
      "inputs": [],
      "name": "lastRewardTime",
      "outputs": [
        {
          "internalType": "uint256",
          "name": "",
          "type": "uint256"
        }
      ],
      "stateMutability": "view",
      "type": "function"
    },
    {
      "inputs": [
        {
          "internalType": "uint256",
          "name": "duration",
          "type": "uint256"
        }
      ],
      "name": "lock",
      "outputs": [],
      "stateMutability": "nonpayable",
      "type": "function"
    },
    {
      "inputs": [],
      "name": "lockGovernance",
      "outputs": [],
      "stateMutability": "nonpayable",
      "type": "function"
    },
    {
      "inputs": [
        {
          "internalType": "address",
          "name": "user",
          "type": "address"
        }
      ],
      "name": "lockTimeLeft",
      "outputs": [
        {
          "internalType": "uint256",
          "name": "timeLeft",
          "type": "uint256"
        }
      ],
      "stateMutability": "view",
      "type": "function"
    },
    {
      "inputs": [
        {
          "internalType": "address",
          "name": "user",
          "type": "address"
        }
      ],
      "name": "multiplier",
      "outputs": [
        {
          "internalType": "uint256",
          "name": "multiplier_",
          "type": "uint256"
        }
      ],
      "stateMutability": "view",
      "type": "function"
    },
    {
      "inputs": [],
      "name": "pendingGovernance",
      "outputs": [
        {
          "internalType": "address",
          "name": "",
          "type": "address"
        }
      ],
      "stateMutability": "view",
      "type": "function"
    },
    {
      "inputs": [
        {
          "internalType": "address",
          "name": "user",
          "type": "address"
        }
      ],
      "name": "pendingRewards",
      "outputs": [
        {
          "internalType": "uint256",
          "name": "reward",
          "type": "uint256"
        }
      ],
      "stateMutability": "view",
      "type": "function"
    },
    {
      "inputs": [],
      "name": "rewardPerSecond",
      "outputs": [
        {
          "internalType": "uint256",
          "name": "",
          "type": "uint256"
        }
      ],
      "stateMutability": "view",
      "type": "function"
    },
    {
      "inputs": [
        {
          "internalType": "uint256",
          "name": "endTime_",
          "type": "uint256"
        }
      ],
      "name": "setEnd",
      "outputs": [],
      "stateMutability": "nonpayable",
      "type": "function"
    },
    {
      "inputs": [
        {
          "internalType": "address",
          "name": "pendingGovernance_",
          "type": "address"
        }
      ],
      "name": "setPendingGovernance",
      "outputs": [],
      "stateMutability": "nonpayable",
      "type": "function"
    },
    {
      "inputs": [
        {
          "internalType": "uint256",
          "name": "rewardPerSecond_",
          "type": "uint256"
        }
      ],
      "name": "setRewards",
      "outputs": [],
      "stateMutability": "nonpayable",
      "type": "function"
    },
    {
      "inputs": [],
      "name": "solace",
      "outputs": [
        {
          "internalType": "address",
          "name": "",
          "type": "address"
        }
      ],
      "stateMutability": "view",
      "type": "function"
    },
    {
      "inputs": [],
      "name": "startTime",
      "outputs": [
        {
          "internalType": "uint256",
          "name": "",
          "type": "uint256"
        }
      ],
      "stateMutability": "view",
      "type": "function"
    },
    {
      "inputs": [],
      "name": "totalSolaceDeposited",
      "outputs": [
        {
          "internalType": "uint256",
          "name": "",
          "type": "uint256"
        }
      ],
      "stateMutability": "view",
      "type": "function"
    },
    {
      "inputs": [],
      "name": "update",
      "outputs": [],
      "stateMutability": "nonpayable",
      "type": "function"
    },
    {
      "inputs": [
        {
          "internalType": "address",
          "name": "",
          "type": "address"
        }
      ],
      "name": "userInfo",
      "outputs": [
        {
          "internalType": "uint256",
          "name": "value",
          "type": "uint256"
        },
        {
          "internalType": "uint256",
          "name": "rewardDebt",
          "type": "uint256"
        },
        {
          "internalType": "uint256",
          "name": "unpaidRewards",
          "type": "uint256"
        },
        {
          "internalType": "uint256",
          "name": "lockExpiry",
          "type": "uint256"
        }
      ],
      "stateMutability": "view",
      "type": "function"
    },
    {
      "inputs": [],
      "name": "valueStaked",
      "outputs": [
        {
          "internalType": "uint256",
          "name": "",
          "type": "uint256"
        }
      ],
      "stateMutability": "view",
      "type": "function"
    },
    {
      "inputs": [
        {
          "internalType": "uint256",
          "name": "amount",
          "type": "uint256"
        }
      ],
      "name": "withdraw",
      "outputs": [],
      "stateMutability": "nonpayable",
      "type": "function"
    },
    {
      "inputs": [],
      "name": "withdraw",
      "outputs": [],
      "stateMutability": "nonpayable",
      "type": "function"
    }
  ],
  "bytecode": "0x60806040523480156200001157600080fd5b5060405162001eb038038062001eb08339810160408190526200003491620001db565b6001600055836001600160a01b038116620000965760405162461bcd60e51b815260206004820152601760248201527f7a65726f206164647265737320676f7665726e616e636500000000000000000060448201526064015b60405180910390fd5b600180546001600160a01b0319166001600160a01b03928316179055600280546001600160a81b03191690558316620001125760405162461bcd60e51b815260206004820152601360248201527f7a65726f206164647265737320736f6c6163650000000000000000000000000060448201526064016200008d565b600480546001600160a01b0319166001600160a01b03851617905580821115620001705760405162461bcd60e51b815260206004820152600e60248201526d696e76616c69642077696e646f7760901b60448201526064016200008d565b8160068190555080600781905550620001954283620001a360201b620010491760201c565b600855506200022392505050565b600081831015620001b55781620001b7565b825b9392505050565b80516001600160a01b0381168114620001d657600080fd5b919050565b60008060008060808587031215620001f257600080fd5b620001fd85620001be565b93506200020d60208601620001be565b6040860151606090960151949790965092505050565b611c7d80620002336000396000f3fe608060405234801561001057600080fd5b50600436106102775760003560e01c806370a0823111610160578063abbf4b17116100d8578063dd4670641161008c578063f39c38a011610071578063f39c38a014610512578063fd967f4714610523578063fe4ca1a91461052357600080fd5b8063dd467064146104f6578063e469d6c91461050957600080fd5b8063bfc10279116100bd578063bfc10279146104bd578063c7a29c6f146104d0578063d7d0278c146104e357600080fd5b8063abbf4b17146104a2578063b6b55f25146104aa57600080fd5b80638f10369a1161012f578063939d623711610114578063939d62371461047e578063a2e6204514610487578063a9b3f8b71461048f57600080fd5b80638f10369a1461046c5780639231cf741461047557600080fd5b806370a082311461043357806378b4330f1461044657806378e97925146104505780637f498ffc1461045957600080fd5b80633197cbb6116101f35780634a4fbeec116101c257806354e01889116101a757806354e01889146104065780635aa6e675146104195780636ae5b46a1461042a57600080fd5b80634a4fbeec146103cd5780634f1bfc9e146103fb57600080fd5b80633197cbb61461037057806331d7a262146103875780633ccfd60b1461039a5780633ef8d97e146103a257600080fd5b80631c9302211161024a578063238efcbc1161022f578063238efcbc146103425780632e1a7d4d1461034a5780632f4f21e21461035d57600080fd5b80631c93022114610311578063227b04be1461032f57600080fd5b80630abb60351461027c5780630e4a75c8146102915780630e5c011e146102a45780631959a002146102b7575b600080fd5b61028f61028a3660046119d2565b61052c565b005b61028f61029f366004611a17565b610629565b61028f6102b23660046119d2565b6106f1565b6102ec6102c53660046119d2565b600b6020526000908152604090208054600182015460028301546003909301549192909184565b6040805194855260208501939093529183015260608201526080015b60405180910390f35b600254600160a01b900460ff165b6040519015158152602001610308565b61028f61033d366004611a6f565b610705565b61028f6107d8565b61028f610358366004611af2565b61094b565b61028f61036b3660046119ed565b610965565b61037960075481565b604051908152602001610308565b6103796103953660046119d2565b61099c565b61028f610a4d565b6004546103b5906001600160a01b031681565b6040516001600160a01b039091168152602001610308565b61031f6103db3660046119d2565b6001600160a01b03166000908152600b6020526040902060030154421090565b610379630784ce0081565b610379610414366004611b24565b610a79565b6001546001600160a01b03166103b5565b610379600a5481565b6103796104413660046119d2565b610ac7565b61037962093a8081565b61037960065481565b61028f610467366004611af2565b610bf2565b61037960055481565b61037960085481565b61037960095481565b61028f610cc5565b61037961049d3660046119d2565b610ccd565b61028f610d4f565b61028f6104b8366004611af2565b610eb6565b61028f6104cb366004611b24565b610ee9565b61028f6104de366004611af2565b610f26565b6103796104f13660046119d2565b610ff9565b61028f610504366004611af2565b61102e565b61037960035481565b6002546001600160a01b03166103b5565b61037961271081565b600254600160a01b900460ff161561057f5760405162461bcd60e51b815260206004820152601160248201527019dbdd995c9b985b98d9481b1bd8dad959607a1b60448201526064015b60405180910390fd5b6001546001600160a01b031633146105c75760405162461bcd60e51b815260206004820152600b60248201526a21676f7665726e616e636560a81b6044820152606401610576565b6002805473ffffffffffffffffffffffffffffffffffffffff19166001600160a01b0383169081179091556040519081527fd61ed858909d3cb796547804c47dc1550d27455f8a0037b6b487e46212392396906020015b60405180910390a150565b6004805460405163d505accf60e01b81526001600160a01b0389811693820193909352306024820152604481018890526064810187905260ff8616608482015260a4810185905260c4810184905291169063d505accf9060e401600060405180830381600087803b15801561069d57600080fd5b505af11580156106b1573d6000803e3d6000fd5b50506004546106ce92506001600160a01b03169050873088611060565b6106d66110fe565b6106df336111a1565b6106e9868661126b565b505050505050565b6106f96110fe565b6107028161131b565b50565b6004805460405163d505accf60e01b81526001600160a01b038a811693820193909352306024820152604481018990526064810188905260ff8716608482015260a4810186905260c4810185905291169063d505accf9060e401600060405180830381600087803b15801561077957600080fd5b505af115801561078d573d6000803e3d6000fd5b50506004546107aa92506001600160a01b03169050883089611060565b6107b26110fe565b6107bb876111a1565b6107c5878761126b565b6107cf8782611482565b50505050505050565b600254600160a01b900460ff16156108265760405162461bcd60e51b815260206004820152601160248201527019dbdd995c9b985b98d9481b1bd8dad959607a1b6044820152606401610576565b6002546001600160a01b031633146108805760405162461bcd60e51b815260206004820152601360248201527f2170656e64696e6720676f7665726e616e6365000000000000000000000000006044820152606401610576565b6002546001600160a01b03166108d85760405162461bcd60e51b815260206004820152600f60248201527f7a65726f20676f7665726e616e636500000000000000000000000000000000006044820152606401610576565b60018054600280546001600160a01b0380821673ffffffffffffffffffffffffffffffffffffffff19808616821790965594909116909155604080519190921680825260208201939093527f5f56bee8cffbe9a78652a74a60705edede02af10b0bbb888ca44b79a0d42ce80910161061e565b6109536110fe565b61095c336111a1565b6107028161161a565b60045461097d906001600160a01b0316333084611060565b6109856110fe565b61098e826111a1565b610998828261126b565b5050565b6001600160a01b0381166000908152600b60205260408120600954600854421180156109c95750600a5415155b15610a095760006109dc60085442610a79565b600a549091506109f18264e8d4a51000611bcf565b6109fb9190611bad565b610a059083611b95565b9150505b60028201546001830154835464e8d4a5100090610a27908590611bcf565b610a319190611bad565b610a3b9190611bee565b610a459190611b95565b949350505050565b610a556110fe565b610a5e336111a1565b336000908152600b6020526040902054610a779061161a565b565b6000610a8783600654611049565b9250610a95826007546116eb565b915081831115610aa757506000610ac1565b600554610ab48484611bee565b610abe9190611bcf565b90505b92915050565b6001600160a01b0381166000908152600b6020526040812060095460085442118015610af45750600a5415155b15610b34576000610b0760085442610a79565b600a54909150610b1c8264e8d4a51000611bcf565b610b269190611bad565b610b309083611b95565b9150505b60008260020154836001015464e8d4a51000848660000154610b569190611bcf565b610b609190611bad565b610b6a9190611bee565b610b749190611b95565b83549091506000610b858383611b95565b60038601549091504290818111610ba55750600098975050505050505050565b6000610bb18383611bee565b9050610bc3612710630784ce00611bcf565b612710610bd0838c611bcf565b610bda9190611bcf565b610be49190611bad565b9a9950505050505050505050565b600254600160a01b900460ff1615610c405760405162461bcd60e51b815260206004820152601160248201527019dbdd995c9b985b98d9481b1bd8dad959607a1b6044820152606401610576565b6001546001600160a01b03163314610c885760405162461bcd60e51b815260206004820152600b60248201526a21676f7665726e616e636560a81b6044820152606401610576565b6007819055610c956110fe565b6040518181527f0a8622338aaf5242929bad810dc991da2c6891581d101eeb840f1ca188a304ab9060200161061e565b610a776110fe565b6001600160a01b0381166000908152600b6020526040812060038101544290818111610cfe57506000949350505050565b6000610d0a8383611bee565b9050610d1c612710630784ce00611bcf565b612710610d3183670de0b6b3a7640000611bcf565b610d3b9190611bcf565b610d459190611bad565b9695505050505050565b600254600160a01b900460ff1615610d9d5760405162461bcd60e51b815260206004820152601160248201527019dbdd995c9b985b98d9481b1bd8dad959607a1b6044820152606401610576565b6001546001600160a01b03163314610de55760405162461bcd60e51b815260206004820152600b60248201526a21676f7665726e616e636560a81b6044820152606401610576565b60028054600180546001600160a01b0373ffffffffffffffffffffffffffffffffffffffff1990911681179091557fffffffffffffffffffffff0000000000000000000000000000000000000000009091167401ffffffffffffffffffffffffffffffffffffffff179091556040805133815260208101929092527f5f56bee8cffbe9a78652a74a60705edede02af10b0bbb888ca44b79a0d42ce80910160405180910390a16040517fd572292b9e5d684b0719ae2d0e210513b477e303c975ed1c63b6fcac1607672790600090a1565b600454610ece906001600160a01b0316333084611060565b610ed66110fe565b610edf336111a1565b610702338261126b565b600454610f01906001600160a01b0316333085611060565b610f096110fe565b610f12336111a1565b610f1c338361126b565b6109983382611482565b600254600160a01b900460ff1615610f745760405162461bcd60e51b815260206004820152601160248201527019dbdd995c9b985b98d9481b1bd8dad959607a1b6044820152606401610576565b6001546001600160a01b03163314610fbc5760405162461bcd60e51b815260206004820152600b60248201526a21676f7665726e616e636560a81b6044820152606401610576565b610fc46110fe565b60058190556040518181527f3a9c73865b863f6b3112a48ba71b6cc75b1b5440abddbcba0135c64a4056508b9060200161061e565b6001600160a01b0381166000908152600b602052604081206003015442808211611024576000610a45565b610a458282611bee565b6110366110fe565b61103f336111a1565b6107023382611482565b6000818310156110595781610abe565b5090919050565b6040516001600160a01b03808516602483015283166044820152606481018290526110f89085906323b872dd60e01b906084015b60408051601f198184030181529190526020810180517bffffffffffffffffffffffffffffffffffffffffffffffffffffffff167fffffffff00000000000000000000000000000000000000000000000000000000909316929092179091526116fa565b50505050565b600854421161110957565b600a546111215761111c426007546116eb565b600855565b600061112f60085442610a79565b600a549091506111448264e8d4a51000611bcf565b61114e9190611bad565b6009600082825461115f9190611b95565b92505081905550611172426007546116eb565b6008556040517ff2e795d4a33ae9a0d3282888375b8ae781ea4de1cbf101ac96150aa95ccff0b490600090a150565b6001600160a01b0381166000908152600b60205260408120600281015460095482549293919264e8d4a51000916111d791611bcf565b6111e19190611bad565b90506000836001015483836111f69190611b95565b6112009190611bee565b90508015611230578084600001600082825461121c9190611b95565b909155505060018401829055600060028501555b6040516001600160a01b038616907f7e14efc6aaeac9afb647fdb368509700917188d3e2c6080d016a6dddae61ca2b90600090a25050505050565b6001600160a01b0382166000908152600b60205260408120600a805491928492611296908490611b95565b90915550508054829082906000906112af908490611b95565b9091555050600954815464e8d4a51000916112c991611bcf565b6112d39190611bad565b60018201556040518281526001600160a01b038416907f2da466a7b24304f47e87fa2e1e5a81b9831ce54fec19055ce277ca2f39ba42c49060200160405180910390a2505050565b6001600160a01b0381166000908152600b60205260408120600281015460095482549293919264e8d4a510009161135191611bcf565b61135b9190611bad565b90506000836001015483836113709190611b95565b61137a9190611bee565b600480546040516370a0823160e01b81523092810192909252919250600091611408916001600160a01b03909116906370a082319060240160206040518083038186803b1580156113ca57600080fd5b505afa1580156113de573d6000803e3d6000fd5b505050506040513d601f19601f820116820180604052508101906114029190611b0b565b836116eb565b905060006114168284611bee565b905084811461142757600286018190555b60018601849055600454611445906001600160a01b031688846117e4565b6040516001600160a01b038816907f46ecfb67a7034c83b14c8dd95864ceb8222973c84f4c6c00f7e80d12dddbb7fd90600090a250505050505050565b62093a808110156114d55760405162461bcd60e51b815260206004820181905260248201527f78534f4c4143453a20756e646572206d696e206c6f636b206475726174696f6e6044820152606401610576565b630784ce008111156115295760405162461bcd60e51b815260206004820152601f60248201527f78534f4c4143453a206f766572206d6178206c6f636b206475726174696f6e006044820152606401610576565b4260006115368383611b95565b6001600160a01b0385166000908152600b60205260409020600381015491925090808310156115cd5760405162461bcd60e51b815260206004820152602760248201527f78534f4c4143453a206578697374696e67206c6f636b2065786365656473206e60448201527f6577206c6f636b000000000000000000000000000000000000000000000000006064820152608401610576565b600382018390556040518381526001600160a01b038716907f9f1ec8c880f76798e7b793325d625e9b60e4082a553c98f42b6cda368dd600089060200160405180910390a2505050505050565b336000908152600b6020526040902060038101544290818111156116805760405162461bcd60e51b815260206004820152600f60248201527f78534f4c4143453a206c6f636b656400000000000000000000000000000000006044820152606401610576565b83600360008282546116929190611bee565b90915550508254849084906000906116ab908490611bee565b909155505060405184815233907f7084f5476618d8e60b11ef0d7d3f06914655adb8793e28ff7f018d4c76d505d59060200160405180910390a250505050565b60008183106110595781610abe565b600061174f826040518060400160405280602081526020017f5361666545524332303a206c6f772d6c6576656c2063616c6c206661696c6564815250856001600160a01b03166118149092919063ffffffff16565b8051909150156117df578080602001905181019061176d9190611ad0565b6117df5760405162461bcd60e51b815260206004820152602a60248201527f5361666545524332303a204552433230206f7065726174696f6e20646964206e60448201527f6f742073756363656564000000000000000000000000000000000000000000006064820152608401610576565b505050565b6040516001600160a01b0383166024820152604481018290526117df90849063a9059cbb60e01b90606401611094565b6060611823848460008561182d565b90505b9392505050565b6060824710156118a55760405162461bcd60e51b815260206004820152602660248201527f416464726573733a20696e73756666696369656e742062616c616e636520666f60448201527f722063616c6c00000000000000000000000000000000000000000000000000006064820152608401610576565b843b6118f35760405162461bcd60e51b815260206004820152601d60248201527f416464726573733a2063616c6c20746f206e6f6e2d636f6e74726163740000006044820152606401610576565b600080866001600160a01b0316858760405161190f9190611b46565b60006040518083038185875af1925050503d806000811461194c576040519150601f19603f3d011682016040523d82523d6000602084013e611951565b606091505b509150915061196182828661196c565b979650505050505050565b6060831561197b575081611826565b82511561198b5782518084602001fd5b8160405162461bcd60e51b81526004016105769190611b62565b80356001600160a01b03811681146119bc57600080fd5b919050565b803560ff811681146119bc57600080fd5b6000602082840312156119e457600080fd5b610abe826119a5565b60008060408385031215611a0057600080fd5b611a09836119a5565b946020939093013593505050565b60008060008060008060c08789031215611a3057600080fd5b611a39876119a5565b95506020870135945060408701359350611a55606088016119c1565b92506080870135915060a087013590509295509295509295565b600080600080600080600060e0888a031215611a8a57600080fd5b611a93886119a5565b96506020880135955060408801359450611aaf606089016119c1565b9699959850939660808101359560a0820135955060c0909101359350915050565b600060208284031215611ae257600080fd5b8151801515811461182657600080fd5b600060208284031215611b0457600080fd5b5035919050565b600060208284031215611b1d57600080fd5b5051919050565b60008060408385031215611b3757600080fd5b50508035926020909101359150565b60008251611b58818460208701611c05565b9190910192915050565b6020815260008251806020840152611b81816040850160208701611c05565b601f01601f19169190910160400192915050565b60008219821115611ba857611ba8611c31565b500190565b600082611bca57634e487b7160e01b600052601260045260246000fd5b500490565b6000816000190483118215151615611be957611be9611c31565b500290565b600082821015611c0057611c00611c31565b500390565b60005b83811015611c20578181015183820152602001611c08565b838111156110f85750506000910152565b634e487b7160e01b600052601160045260246000fdfea2646970667358221220e7530879f4368b1e3164f309c12f26ce5b878e0e34a665222b2a77e13f44dd7264736f6c63430008060033",
  "linkReferences": {},
  "deployedLinkReferences": {}
}