{
  "_format": "hh-sol-artifact-1",
  "contractName": "xSolaceMigrator",
  "sourceName": "contracts/xSolaceMigrator.sol",
  "abi": [
    {
      "inputs": [
        {
          "internalType": "address",
          "name": "solace_",
          "type": "address"
        },
        {
          "internalType": "address",
          "name": "xsolace_v1_",
          "type": "address"
        },
        {
          "internalType": "address",
          "name": "xsolace_v2_",
          "type": "address"
        }
      ],
      "stateMutability": "nonpayable",
      "type": "constructor"
    },
    {
      "inputs": [],
      "name": "migrate",
      "outputs": [],
      "stateMutability": "nonpayable",
      "type": "function"
    },
    {
      "inputs": [
        {
          "internalType": "address",
          "name": "depositor",
          "type": "address"
        },
        {
          "internalType": "uint256",
          "name": "amount",
          "type": "uint256"
        },
        {
          "internalType": "uint256",
          "name": "deadline",
          "type": "uint256"
        },
        {
          "internalType": "uint8",
          "name": "v",
          "type": "uint8"
        },
        {
          "internalType": "bytes32",
          "name": "r",
          "type": "bytes32"
        },
        {
          "internalType": "bytes32",
          "name": "s",
          "type": "bytes32"
        }
      ],
      "name": "migrateSigned",
      "outputs": [],
      "stateMutability": "nonpayable",
      "type": "function"
    },
    {
      "inputs": [],
      "name": "solace",
      "outputs": [
        {
          "internalType": "address",
          "name": "",
          "type": "address"
        }
      ],
      "stateMutability": "view",
      "type": "function"
    },
    {
      "inputs": [],
      "name": "xsolace_v1",
      "outputs": [
        {
          "internalType": "address",
          "name": "",
          "type": "address"
        }
      ],
      "stateMutability": "view",
      "type": "function"
    },
    {
      "inputs": [],
      "name": "xsolace_v2",
      "outputs": [
        {
          "internalType": "address",
          "name": "",
          "type": "address"
        }
      ],
      "stateMutability": "view",
      "type": "function"
    }
  ],
  "bytecode": "0x608060405234801561001057600080fd5b50604051610ad1380380610ad183398101604081905261002f9161022b565b60016000556001600160a01b03831661008f5760405162461bcd60e51b815260206004820152601360248201527f7a65726f206164647265737320736f6c6163650000000000000000000000000060448201526064015b60405180910390fd5b600180546001600160a01b0319166001600160a01b038581169190911790915582166100fd5760405162461bcd60e51b815260206004820152601760248201527f7a65726f20616464726573732078736f6c6163652076310000000000000000006044820152606401610086565b600280546001600160a01b0319166001600160a01b0384811691909117909155811661016b5760405162461bcd60e51b815260206004820152601760248201527f7a65726f20616464726573732078736f6c6163652076320000000000000000006044820152606401610086565b600380546001600160a01b0319166001600160a01b0383811691821790925560405163095ea7b360e01b8152600481019190915260001960248201529084169063095ea7b390604401602060405180830381600087803b1580156101ce57600080fd5b505af11580156101e2573d6000803e3d6000fd5b505050506040513d601f19601f82011682018060405250810190610206919061026e565b50505050610297565b80516001600160a01b038116811461022657600080fd5b919050565b60008060006060848603121561024057600080fd5b6102498461020f565b92506102576020850161020f565b91506102656040850161020f565b90509250925092565b60006020828403121561028057600080fd5b8151801515811461029057600080fd5b9392505050565b61082b806102a66000396000f3fe608060405234801561001057600080fd5b50600436106100675760003560e01c8063b9a74bd311610050578063b9a74bd3146100a5578063d72efa79146100b8578063f2b64bf2146100cb57600080fd5b80633ef8d97e1461006c5780638fd3ab801461009b575b600080fd5b60015461007f906001600160a01b031681565b6040516001600160a01b03909116815260200160405180910390f35b6100a36100de565b005b60035461007f906001600160a01b031681565b6100a36100c63660046106d1565b6101db565b60025461007f906001600160a01b031681565b600260005414156101365760405162461bcd60e51b815260206004820152601f60248201527f5265656e7472616e637947756172643a207265656e7472616e742063616c6c0060448201526064015b60405180910390fd5b6002600081815590546040516370a0823160e01b81523360048201526001600160a01b03909116919082906370a082319060240160206040518083038186803b15801561018257600080fd5b505afa158015610196573d6000803e3d6000fd5b505050506040513d601f19601f820116820180604052508101906101ba9190610761565b90506101c8823330846102ed565b6101d23382610362565b50506001600055565b6002600054141561022e5760405162461bcd60e51b815260206004820152601f60248201527f5265656e7472616e637947756172643a207265656e7472616e742063616c6c00604482015260640161012d565b600260005560015460405163d505accf60e01b81526001600160a01b038881166004830152306024830152604482018890526064820187905260ff8616608483015260a4820185905260c482018490529091169063d505accf9060e401600060405180830381600087803b1580156102a557600080fd5b505af11580156102b9573d6000803e3d6000fd5b50506002546102d692506001600160a01b031690508730886102ed565b6102e08686610362565b5050600160005550505050565b604080516001600160a01b0385811660248301528416604482015260648082018490528251808303909101815260849091019091526020810180517bffffffffffffffffffffffffffffffffffffffffffffffffffffffff166323b872dd60e01b17905261035c908590610456565b50505050565b6002546040516305c2fbcf60e31b8152600481018390526001600160a01b03909116906000908290632e17de7890602401602060405180830381600087803b1580156103ad57600080fd5b505af11580156103c1573d6000803e3d6000fd5b505050506040513d601f19601f820116820180604052508101906103e59190610761565b6003546040516317a790f160e11b81526001600160a01b038781166004830152602482018790529293509116908190632f4f21e290604401600060405180830381600087803b15801561043757600080fd5b505af115801561044b573d6000803e3d6000fd5b505050505050505050565b60006104ab826040518060400160405280602081526020017f5361666545524332303a206c6f772d6c6576656c2063616c6c206661696c6564815250856001600160a01b03166105409092919063ffffffff16565b80519091501561053b57808060200190518101906104c9919061073f565b61053b5760405162461bcd60e51b815260206004820152602a60248201527f5361666545524332303a204552433230206f7065726174696f6e20646964206e60448201527f6f74207375636365656400000000000000000000000000000000000000000000606482015260840161012d565b505050565b606061054f8484600085610559565b90505b9392505050565b6060824710156105d15760405162461bcd60e51b815260206004820152602660248201527f416464726573733a20696e73756666696369656e742062616c616e636520666f60448201527f722063616c6c0000000000000000000000000000000000000000000000000000606482015260840161012d565b843b61061f5760405162461bcd60e51b815260206004820152601d60248201527f416464726573733a2063616c6c20746f206e6f6e2d636f6e7472616374000000604482015260640161012d565b600080866001600160a01b0316858760405161063b919061077a565b60006040518083038185875af1925050503d8060008114610678576040519150601f19603f3d011682016040523d82523d6000602084013e61067d565b606091505b509150915061068d828286610698565b979650505050505050565b606083156106a7575081610552565b8251156106b75782518084602001fd5b8160405162461bcd60e51b815260040161012d9190610796565b60008060008060008060c087890312156106ea57600080fd5b86356001600160a01b038116811461070157600080fd5b95506020870135945060408701359350606087013560ff8116811461072557600080fd5b9598949750929560808101359460a0909101359350915050565b60006020828403121561075157600080fd5b8151801515811461055257600080fd5b60006020828403121561077357600080fd5b5051919050565b6000825161078c8184602087016107c9565b9190910192915050565b60208152600082518060208401526107b58160408501602087016107c9565b601f01601f19169190910160400192915050565b60005b838110156107e45781810151838201526020016107cc565b8381111561035c575050600091015256fea2646970667358221220ce11fa2ff7754057c0de9cd202115efb8018f06eeb86a15c4a4147304961784664736f6c63430008060033",
  "linkReferences": {},
  "deployedLinkReferences": {}
}