{
  "_format": "hh-sol-artifact-1",
  "contractName": "xSolaceMigrator",
  "sourceName": "contracts/staking/xSolaceMigrator.sol",
  "abi": [
    {
      "inputs": [
        {
          "internalType": "address",
          "name": "solace_",
          "type": "address"
        },
        {
          "internalType": "address",
          "name": "xsolace_v1_",
          "type": "address"
        },
        {
          "internalType": "address",
          "name": "xslocker_",
          "type": "address"
        }
      ],
      "stateMutability": "nonpayable",
      "type": "constructor"
    },
    {
      "inputs": [
        {
          "internalType": "uint256",
          "name": "amount",
          "type": "uint256"
        },
        {
          "internalType": "uint256",
          "name": "lockEnd",
          "type": "uint256"
        }
      ],
      "name": "migrate",
      "outputs": [],
      "stateMutability": "nonpayable",
      "type": "function"
    },
    {
      "inputs": [
        {
          "internalType": "uint256",
          "name": "amount",
          "type": "uint256"
        },
        {
          "internalType": "uint256",
          "name": "lockEnd",
          "type": "uint256"
        },
        {
          "internalType": "uint256",
          "name": "deadline",
          "type": "uint256"
        },
        {
          "internalType": "uint8",
          "name": "v",
          "type": "uint8"
        },
        {
          "internalType": "bytes32",
          "name": "r",
          "type": "bytes32"
        },
        {
          "internalType": "bytes32",
          "name": "s",
          "type": "bytes32"
        }
      ],
      "name": "migrateSigned",
      "outputs": [],
      "stateMutability": "nonpayable",
      "type": "function"
    },
    {
      "inputs": [],
      "name": "solace",
      "outputs": [
        {
          "internalType": "address",
          "name": "",
          "type": "address"
        }
      ],
      "stateMutability": "view",
      "type": "function"
    },
    {
      "inputs": [],
      "name": "xslocker",
      "outputs": [
        {
          "internalType": "address",
          "name": "",
          "type": "address"
        }
      ],
      "stateMutability": "view",
      "type": "function"
    },
    {
      "inputs": [],
      "name": "xsolace_v1",
      "outputs": [
        {
          "internalType": "address",
          "name": "",
          "type": "address"
        }
      ],
      "stateMutability": "view",
      "type": "function"
    }
  ],
  "bytecode": "0x608060405234801561001057600080fd5b50604051610a9d380380610a9d83398101604081905261002f9161022b565b60016000556001600160a01b03831661008f5760405162461bcd60e51b815260206004820152601360248201527f7a65726f206164647265737320736f6c6163650000000000000000000000000060448201526064015b60405180910390fd5b600180546001600160a01b0319166001600160a01b038581169190911790915582166100fd5760405162461bcd60e51b815260206004820152601760248201527f7a65726f20616464726573732078736f6c6163652076310000000000000000006044820152606401610086565b600280546001600160a01b0319166001600160a01b0384811691909117909155811661016b5760405162461bcd60e51b815260206004820152601560248201527f7a65726f20616464726573732078736c6f636b657200000000000000000000006044820152606401610086565b600380546001600160a01b0319166001600160a01b0383811691821790925560405163095ea7b360e01b8152600481019190915260001960248201529084169063095ea7b390604401602060405180830381600087803b1580156101ce57600080fd5b505af11580156101e2573d6000803e3d6000fd5b505050506040513d601f19601f82011682018060405250810190610206919061026e565b50505050610297565b80516001600160a01b038116811461022657600080fd5b919050565b60008060006060848603121561024057600080fd5b6102498461020f565b92506102576020850161020f565b91506102656040850161020f565b90509250925092565b60006020828403121561028057600080fd5b8151801515811461029057600080fd5b9392505050565b6107f7806102a66000396000f3fe608060405234801561001057600080fd5b50600436106100675760003560e01c80633ef8d97e116100505780633ef8d97e14610094578063e84f8ba6146100c3578063f2b64bf2146100d657600080fd5b80630a90bb291461006c5780633e54bacb14610081575b600080fd5b61007f61007a3660046106ed565b6100e9565b005b61007f61008f3660046106cb565b6101ff565b6001546100a7906001600160a01b031681565b6040516001600160a01b03909116815260200160405180910390f35b6003546100a7906001600160a01b031681565b6002546100a7906001600160a01b031681565b600260005414156101415760405162461bcd60e51b815260206004820152601f60248201527f5265656e7472616e637947756172643a207265656e7472616e742063616c6c0060448201526064015b60405180910390fd5b600260008190555460405163d505accf60e01b8152336004820152306024820152604481018890526064810186905260ff8516608482015260a4810184905260c481018390526001600160a01b039091169063d505accf9060e401600060405180830381600087803b1580156101b657600080fd5b505af11580156101ca573d6000803e3d6000fd5b50506002546101e792506001600160a01b03169050333089610283565b6101f23387876102f8565b5050600160005550505050565b600260005414156102525760405162461bcd60e51b815260206004820152601f60248201527f5265656e7472616e637947756172643a207265656e7472616e742063616c6c006044820152606401610138565b600260008190555461026f906001600160a01b0316333085610283565b61027a3383836102f8565b50506001600055565b604080516001600160a01b0385811660248301528416604482015260648082018490528251808303909101815260849091019091526020810180517bffffffffffffffffffffffffffffffffffffffffffffffffffffffff166323b872dd60e01b1790526102f2908590610415565b50505050565b6002546040516305c2fbcf60e31b8152600481018490526001600160a01b03909116906000908290632e17de7890602401602060405180830381600087803b15801561034357600080fd5b505af1158015610357573d6000803e3d6000fd5b505050506040513d601f19601f8201168201806040525081019061037b91906106b2565b60035460405163650e150560e01b81526001600160a01b0388811660048301526024820184905260448201879052929350911690819063650e150590606401602060405180830381600087803b1580156103d457600080fd5b505af11580156103e8573d6000803e3d6000fd5b505050506040513d601f19601f8201168201806040525081019061040c91906106b2565b50505050505050565b600061046a826040518060400160405280602081526020017f5361666545524332303a206c6f772d6c6576656c2063616c6c206661696c6564815250856001600160a01b03166104ff9092919063ffffffff16565b8051909150156104fa57808060200190518101906104889190610690565b6104fa5760405162461bcd60e51b815260206004820152602a60248201527f5361666545524332303a204552433230206f7065726174696f6e20646964206e60448201527f6f742073756363656564000000000000000000000000000000000000000000006064820152608401610138565b505050565b606061050e8484600085610518565b90505b9392505050565b6060824710156105905760405162461bcd60e51b815260206004820152602660248201527f416464726573733a20696e73756666696369656e742062616c616e636520666f60448201527f722063616c6c00000000000000000000000000000000000000000000000000006064820152608401610138565b843b6105de5760405162461bcd60e51b815260206004820152601d60248201527f416464726573733a2063616c6c20746f206e6f6e2d636f6e74726163740000006044820152606401610138565b600080866001600160a01b031685876040516105fa9190610746565b60006040518083038185875af1925050503d8060008114610637576040519150601f19603f3d011682016040523d82523d6000602084013e61063c565b606091505b509150915061064c828286610657565b979650505050505050565b60608315610666575081610511565b8251156106765782518084602001fd5b8160405162461bcd60e51b81526004016101389190610762565b6000602082840312156106a257600080fd5b8151801515811461051157600080fd5b6000602082840312156106c457600080fd5b5051919050565b600080604083850312156106de57600080fd5b50508035926020909101359150565b60008060008060008060c0878903121561070657600080fd5b863595506020870135945060408701359350606087013560ff8116811461072c57600080fd5b9598949750929560808101359460a0909101359350915050565b60008251610758818460208701610795565b9190910192915050565b6020815260008251806020840152610781816040850160208701610795565b601f01601f19169190910160400192915050565b60005b838110156107b0578181015183820152602001610798565b838111156102f2575050600091015256fea2646970667358221220f2bad6b7bc99ecf8ad1696c04563b8244848831bbb6937eeda5a0da1c79ee32f64736f6c63430008060033",
  "linkReferences": {},
  "deployedLinkReferences": {}
}